{
  "contractName": "Capsule",
  "abi": [
    {
      "constant": true,
      "inputs": [],
      "name": "mode",
      "outputs": [
        {
          "name": "",
          "type": "bool"
        }
      ],
      "payable": false,
      "stateMutability": "view",
      "type": "function"
    },
    {
      "constant": true,
      "inputs": [],
      "name": "manager",
      "outputs": [
        {
          "name": "",
          "type": "address"
        }
      ],
      "payable": false,
      "stateMutability": "view",
      "type": "function"
    },
    {
      "inputs": [
        {
          "name": "_period",
          "type": "uint256"
        },
        {
          "name": "_owner",
          "type": "address"
        },
        {
          "name": "_latitude",
          "type": "uint256"
        },
        {
          "name": "_longitude",
          "type": "uint256"
        },
        {
          "name": "value",
          "type": "uint256"
        },
        {
          "name": "_limit",
          "type": "uint256"
        },
        {
          "name": "_hash",
          "type": "string"
        }
      ],
      "payable": true,
      "stateMutability": "payable",
      "type": "constructor"
    },
    {
      "payable": true,
      "stateMutability": "payable",
      "type": "fallback"
    },
    {
      "constant": false,
      "inputs": [
        {
          "name": "_key",
          "type": "string"
        }
      ],
      "name": "KeyRegister",
      "outputs": [],
      "payable": false,
      "stateMutability": "nonpayable",
      "type": "function"
    },
    {
      "constant": true,
      "inputs": [],
      "name": "check",
      "outputs": [
        {
          "name": "",
          "type": "bool"
        }
      ],
      "payable": false,
      "stateMutability": "view",
      "type": "function"
    },
    {
      "constant": false,
      "inputs": [
        {
          "name": "_owner",
          "type": "address"
        }
      ],
      "name": "Participate",
      "outputs": [
        {
          "name": "",
          "type": "bool"
        }
      ],
      "payable": true,
      "stateMutability": "payable",
      "type": "function"
    },
    {
      "constant": true,
      "inputs": [],
      "name": "BreakCapsule1",
      "outputs": [
        {
          "name": "",
          "type": "address[]"
        }
      ],
      "payable": false,
      "stateMutability": "view",
      "type": "function"
    },
    {
      "constant": false,
      "inputs": [],
      "name": "BreakCapsule2",
      "outputs": [],
      "payable": false,
      "stateMutability": "nonpayable",
      "type": "function"
    },
    {
      "constant": false,
      "inputs": [
        {
          "name": "_mode",
          "type": "bool"
        }
      ],
      "name": "ModeChange",
      "outputs": [],
      "payable": false,
      "stateMutability": "nonpayable",
      "type": "function"
    },
    {
      "constant": false,
      "inputs": [
        {
          "name": "_key",
          "type": "string"
        },
        {
          "name": "_latitude",
          "type": "uint256"
        },
        {
          "name": "_logitude",
          "type": "uint256"
        }
      ],
      "name": "Open",
      "outputs": [
        {
          "name": "",
          "type": "string"
        }
      ],
      "payable": false,
      "stateMutability": "nonpayable",
      "type": "function"
    }
  ],
  "bytecode": "0x608060405260646008556000600b60006101000a81548160ff021916908315150217905550604051610fad380380610fad833981018060405260e081101561004657600080fd5b81019080805190602001909291908051906020019092919080519060200190929190805190602001909291908051906020019092919080519060200190929190805164010000000081111561009a57600080fd5b828101905060208101848111156100b057600080fd5b81518560018202830111640100000000821117156100cd57600080fd5b505092919050505086420160008190555060028690806001815401808255809150509060018203906000526020600020016000909192909190916101000a81548173ffffffffffffffffffffffffffffffffffffffff021916908373ffffffffffffffffffffffffffffffffffffffff160217905550506000600360008873ffffffffffffffffffffffffffffffffffffffff1673ffffffffffffffffffffffffffffffffffffffff16815260200190815260200160002060006101000a81548160ff02191690831515021790555032600460006101000a81548173ffffffffffffffffffffffffffffffffffffffff021916908373ffffffffffffffffffffffffffffffffffffffff160217905550846006600101819055508360066000018190555082600a8190555081874201016001819055508060059080519060200190610219929190610226565b50505050505050506102cb565b828054600181600116156101000203166002900490600052602060002090601f016020900481019282601f1061026757805160ff1916838001178555610295565b82800160010185558215610295579182015b82811115610294578251825591602001919060010190610279565b5b5090506102a291906102a6565b5090565b6102c891905b808211156102c45760008160009055506001016102ac565b5090565b90565b610cd3806102da6000396000f3fe608060405260043610610099576000357c0100000000000000000000000000000000000000000000000000000000900463ffffffff168063295a52121461009b578063481c6a75146100ca578063484cb004146101215780634978f927146101385780634a85b5f4146102005780634c5bbf091461025c578063919840ad14610299578063f005b2c4146102c8578063ff1e00131461041d575b005b3480156100a757600080fd5b506100b0610489565b604051808215151515815260200191505060405180910390f35b3480156100d657600080fd5b506100df61049c565b604051808273ffffffffffffffffffffffffffffffffffffffff1673ffffffffffffffffffffffffffffffffffffffff16815260200191505060405180910390f35b34801561012d57600080fd5b506101366104c2565b005b34801561014457600080fd5b506101fe6004803603602081101561015b57600080fd5b810190808035906020019064010000000081111561017857600080fd5b82018360208201111561018a57600080fd5b803590602001918460018302840111640100000000831117156101ac57600080fd5b91908080601f016020809104026020016040519081016040528093929190818152602001838380828437600081840152601f19601f820116905080830192505050505050509192919290505050610559565b005b6102426004803603602081101561021657600080fd5b81019080803573ffffffffffffffffffffffffffffffffffffffff1690602001909291905050506105e7565b604051808215151515815260200191505060405180910390f35b34801561026857600080fd5b506102976004803603602081101561027f57600080fd5b810190808035151590602001909291905050506106c4565b005b3480156102a557600080fd5b506102ae61073d565b604051808215151515815260200191505060405180910390f35b3480156102d457600080fd5b506103a2600480360360608110156102eb57600080fd5b810190808035906020019064010000000081111561030857600080fd5b82018360208201111561031a57600080fd5b8035906020019184600183028401116401000000008311171561033c57600080fd5b91908080601f016020809104026020016040519081016040528093929190818152602001838380828437600081840152601f19601f82011690508083019250505050505050919291929080359060200190929190803590602001909291905050506107ee565b6040518080602001828103825283818151815260200191508051906020019080838360005b838110156103e25780820151818401526020810190506103c7565b50505050905090810190601f16801561040f5780820380516001836020036101000a031916815260200191505b509250505060405180910390f35b34801561042957600080fd5b50610432610aea565b6040518080602001828103825283818151815260200191508051906020019060200280838360005b8381101561047557808201518184015260208101905061045a565b505050509050019250505060405180910390f35b600b60009054906101000a900460ff1681565b600460009054906101000a900473ffffffffffffffffffffffffffffffffffffffff1681565b3373ffffffffffffffffffffffffffffffffffffffff16600460009054906101000a900473ffffffffffffffffffffffffffffffffffffffff1673ffffffffffffffffffffffffffffffffffffffff1614151561051e57600080fd5b600460009054906101000a900473ffffffffffffffffffffffffffffffffffffffff1673ffffffffffffffffffffffffffffffffffffffff16ff5b6002600081548110151561056957fe5b9060005260206000200160009054906101000a900473ffffffffffffffffffffffffffffffffffffffff1673ffffffffffffffffffffffffffffffffffffffff163373ffffffffffffffffffffffffffffffffffffffff161415156105cd57600080fd5b80600990805190602001906105e3929190610c02565b5050565b60003373ffffffffffffffffffffffffffffffffffffffff16600460009054906101000a900473ffffffffffffffffffffffffffffffffffffffff1673ffffffffffffffffffffffffffffffffffffffff1614151561064557600080fd5b600a543414151561065557600080fd5b60028290806001815401808255809150509060018203906000526020600020016000909192909190916101000a81548173ffffffffffffffffffffffffffffffffffffffff021916908373ffffffffffffffffffffffffffffffffffffffff1602179055505060019050919050565b3373ffffffffffffffffffffffffffffffffffffffff16600460009054906101000a900473ffffffffffffffffffffffffffffffffffffffff1673ffffffffffffffffffffffffffffffffffffffff1614151561072057600080fd5b80600b60006101000a81548160ff02191690831515021790555050565b6000806000905060008090505b6002805490508110156107d6573373ffffffffffffffffffffffffffffffffffffffff1660028281548110151561077d57fe5b9060005260206000200160009054906101000a900473ffffffffffffffffffffffffffffffffffffffff1673ffffffffffffffffffffffffffffffffffffffff1614156107c957600191505b808060010191505061074a565b508015156107e357600080fd5b600054421191505090565b606060015460005401421115801561080857506000544210155b151561081357600080fd5b8380519060200120600960405180828054600181600116156101000203166002900480156108785780601f10610856576101008083540402835291820191610878565b820191906000526020600020905b815481529060010190602001808311610864575b505091505060405180910390201480156108bb575060026008540a60026108a460066001015486610bd4565b0a60026108b660066000015486610bd4565b0a0111155b15156108c657600080fd5b600360003373ffffffffffffffffffffffffffffffffffffffff1673ffffffffffffffffffffffffffffffffffffffff16815260200190815260200160002060009054906101000a900460ff1615151561091f57600080fd5b6001600360003373ffffffffffffffffffffffffffffffffffffffff1673ffffffffffffffffffffffffffffffffffffffff16815260200190815260200160002060006101000a81548160ff021916908315150217905550600b60009054906101000a900460ff16156109da573373ffffffffffffffffffffffffffffffffffffffff166108fc600a549081150290604051600060405180830381858888f193505050501580156109d4573d6000803e3d6000fd5b50610ae2565b600c3390806001815401808255809150509060018203906000526020600020016000909192909190916101000a81548173ffffffffffffffffffffffffffffffffffffffff021916908373ffffffffffffffffffffffffffffffffffffffff1602179055505060058054600181600116156101000203166002900480601f016020809104026020016040519081016040528092919081815260200182805460018160011615610100020316600290048015610ad65780601f10610aab57610100808354040283529160200191610ad6565b820191906000526020600020905b815481529060010190602001808311610ab957829003601f168201915b50505050509050610ae3565b5b9392505050565b60603373ffffffffffffffffffffffffffffffffffffffff16600460009054906101000a900473ffffffffffffffffffffffffffffffffffffffff1673ffffffffffffffffffffffffffffffffffffffff16141515610b4857600080fd5b600c805480602002602001604051908101604052809291908181526020018280548015610bca57602002820191906000526020600020905b8160009054906101000a900473ffffffffffffffffffffffffffffffffffffffff1673ffffffffffffffffffffffffffffffffffffffff1681526020019060010190808311610b80575b5050505050905090565b600081831115610be8578183039050610bfc565b8183111515610bfb578282039050610bfc565b5b92915050565b828054600181600116156101000203166002900490600052602060002090601f016020900481019282601f10610c4357805160ff1916838001178555610c71565b82800160010185558215610c71579182015b82811115610c70578251825591602001919060010190610c55565b5b509050610c7e9190610c82565b5090565b610ca491905b80821115610ca0576000816000905550600101610c88565b5090565b9056fea165627a7a723058203c113fb5ab925cebe67950f1b22baf06409ed28bf59176c4990a3c5b53c3e3db0029",
  "source": "pragma solidity ^0.5.0;\r\n\r\n\r\ncontract Capsule {\r\n    uint time;  // 캡슐을 여는 시간\r\n    uint limit; // 캡슐 여는 기간\r\n    address[] owner;    // 캡슐에 넣은 사람들 지갑 주소\r\n    mapping(address => bool) taked;\r\n    address payable public manager;    // 서버\r\n    string hash;    // ipfs 해시값\r\n    coordinate pos; // 묻은 좌표\r\n    uint radius = 100;  // 한계 거리 (m)\r\n    string key;\r\n    uint balance;\r\n    bool public mode = false;\r\n    address[] moneyreturn;\r\n\r\n    struct coordinate {\r\n        uint longitude;\r\n        uint latitude;\r\n    }\r\n    \r\n    /*\r\n    생성자\r\n    input : 시간 얼마나 뒤에 열거야, 묻는 사람, x좌표, y좌표, 키\r\n    */\r\n    constructor (uint _period, address _owner, uint _latitude, uint _longitude, uint value, uint _limit, string memory _hash) public payable {\r\n        time = now + _period;\r\n        owner.push(_owner);\r\n        taked[_owner] = false;\r\n        manager = tx.origin;\r\n        pos.latitude = _latitude;\r\n        pos.longitude = _longitude;\r\n        balance = value;\r\n        limit = now + _period + _limit;\r\n        hash = _hash;\r\n    }\r\n    \r\n    modifier ManagerShip() {    // 서버만 호출가능\r\n        require(manager == msg.sender);\r\n        _;\r\n    }\r\n    \r\n    modifier TimeLimit {\r\n        require(now <= time + limit && now >= time);\r\n        _;\r\n    }\r\n    /*\r\n    두 입력의 차 리턴\r\n    */\r\n    function AbsSubtract(uint a, uint b) private pure returns(uint) {\r\n        if (a > b) return a - b;\r\n        else if (a <= b) return b - a;\r\n    }\r\n\r\n    function KeyRegister(string memory _key) public {\r\n        require(msg.sender == owner[0]);\r\n        key = _key;\r\n    }\r\n    \r\n    /*\r\n    시간 지났는지 아닌지 체크\r\n    \r\n    캡슐 주인들만 확인 가능\r\n\r\n    output : 시간 지났으면 true, 아니면 false\r\n    */\r\n    function check() public view returns(bool) {\r\n        bool avail = false;\r\n        for (uint i = 0 ; i < owner.length ; i++) {\r\n            if (owner[i] == msg.sender) avail = true;\r\n        }\r\n        require(avail);\r\n        return (now > time);\r\n    }\r\n    \r\n    /*\r\n    참여자 추가 함수\r\n\r\n    input : 참여자 address\r\n    output : 성공시 true\r\n    */\r\n    function Participate(address _owner) public ManagerShip payable returns(bool) {\r\n        require(msg.value == balance);\r\n        owner.push(_owner);\r\n        return true;\r\n    }\r\n    \r\n    \r\n    function BreakCapsule1() public view ManagerShip returns(address[] memory) {\r\n        return moneyreturn;\r\n    }\r\n    \r\n    function BreakCapsule2() public ManagerShip {\r\n        selfdestruct(manager);\r\n    }\r\n    \r\n    /*\r\n    true : service End\r\n    */\r\n    function ModeChange(bool _mode) public ManagerShip {\r\n        mode = _mode;\r\n    }\r\n    \r\n    /*\r\n    열기 함수\r\n    input : 키, 장소, 경도, 위도\r\n    output : 저장되어진 해시값\r\n    */\r\n    function Open(string memory _key, uint _latitude, uint _logitude) public TimeLimit returns(string memory){\r\n        require(keccak256(bytes(key)) == keccak256(bytes(_key)) && (AbsSubtract(pos.longitude, _logitude) ** 2 + AbsSubtract(pos.latitude, _latitude) ** 2 <= radius ** 2));\r\n        require(!taked[msg.sender]);\r\n        taked[msg.sender] = true;\r\n        if (mode) {\r\n            msg.sender.transfer(balance);\r\n        } else {\r\n            moneyreturn.push(msg.sender);\r\n            return hash;\r\n        }\r\n    }\r\n    \r\n    \r\n    \r\n    function() external payable {}\r\n}",
  "sourcePath": "C:\\Users\\SeungjinLee\\Desktop\\founders\\truffle_test\\contracts\\Capsule.sol",
  "compiler": {
    "name": "solc",
    "version": "0.5.0+commit.1d4f565a.Emscripten.clang"
  },
  "schemaVersion": "3.0.11",
  "updatedAt": "2019-08-01T18:19:06.641Z",
  "devdoc": {
    "methods": {}
  },
  "userdoc": {
    "methods": {}
  }
}