{
  "contractName": "manage",
  "abi": [
    {
      "constant": true,
      "inputs": [],
      "name": "last_capsule",
      "outputs": [
        {
          "name": "",
          "type": "address"
        }
      ],
      "payable": false,
      "stateMutability": "view",
      "type": "function"
    },
    {
      "inputs": [],
      "payable": false,
      "stateMutability": "nonpayable",
      "type": "constructor"
    },
    {
      "payable": true,
      "stateMutability": "payable",
      "type": "fallback"
    },
    {
      "anonymous": false,
      "inputs": [
        {
          "indexed": false,
          "name": "owner",
          "type": "address"
        },
        {
          "indexed": false,
          "name": "caps",
          "type": "address"
        }
      ],
      "name": "last",
      "type": "event"
    },
    {
      "constant": false,
      "inputs": [
        {
          "name": "_period",
          "type": "uint256"
        },
        {
          "name": "_owner",
          "type": "address"
        },
        {
          "name": "_x",
          "type": "uint256"
        },
        {
          "name": "_y",
          "type": "uint256"
        },
        {
          "name": "_limit",
          "type": "uint256"
        },
        {
          "name": "_hash",
          "type": "string"
        }
      ],
      "name": "Bury",
      "outputs": [
        {
          "name": "",
          "type": "address"
        }
      ],
      "payable": true,
      "stateMutability": "payable",
      "type": "function"
    },
    {
      "constant": true,
      "inputs": [],
      "name": "CheckLastCapsule",
      "outputs": [
        {
          "name": "",
          "type": "address"
        }
      ],
      "payable": false,
      "stateMutability": "view",
      "type": "function"
    },
    {
      "constant": true,
      "inputs": [],
      "name": "checking",
      "outputs": [
        {
          "name": "",
          "type": "uint256"
        },
        {
          "name": "",
          "type": "uint256"
        },
        {
          "name": "",
          "type": "address"
        },
        {
          "name": "",
          "type": "address"
        },
        {
          "name": "",
          "type": "address"
        }
      ],
      "payable": false,
      "stateMutability": "view",
      "type": "function"
    },
    {
      "constant": false,
      "inputs": [
        {
          "name": "tmp",
          "type": "address"
        }
      ],
      "name": "showmode",
      "outputs": [
        {
          "name": "",
          "type": "bool"
        }
      ],
      "payable": false,
      "stateMutability": "nonpayable",
      "type": "function"
    },
    {
      "constant": true,
      "inputs": [],
      "name": "show",
      "outputs": [
        {
          "name": "",
          "type": "bool"
        }
      ],
      "payable": false,
      "stateMutability": "view",
      "type": "function"
    },
    {
      "constant": false,
      "inputs": [],
      "name": "ServiceEnd",
      "outputs": [],
      "payable": false,
      "stateMutability": "nonpayable",
      "type": "function"
    }
  ],
  "bytecode": "0x60806040527f5468652070726f636573732077617320737563636573730000000000000000006003557f5468652070726f6365737320776173206661696c00000000000000000000000060045534801561005857600080fd5b50336000806101000a81548173ffffffffffffffffffffffffffffffffffffffff021916908373ffffffffffffffffffffffffffffffffffffffff160217905550611f6a806100a86000396000f3fe608060405260043610610083576000357c0100000000000000000000000000000000000000000000000000000000900463ffffffff16806317a9b772146100855780638637ab7214610150578063bf59a7c214610293578063cc80f6f3146102ea578063e6d5e8de14610319578063ef008e1614610382578063fbd6622f146103d9575b005b34801561009157600080fd5b5061009a6103f0565b604051808681526020018581526020018473ffffffffffffffffffffffffffffffffffffffff1673ffffffffffffffffffffffffffffffffffffffff1681526020018373ffffffffffffffffffffffffffffffffffffffff1673ffffffffffffffffffffffffffffffffffffffff1681526020018273ffffffffffffffffffffffffffffffffffffffff1673ffffffffffffffffffffffffffffffffffffffff1681526020019550505050505060405180910390f35b610251600480360360c081101561016657600080fd5b8101908080359060200190929190803573ffffffffffffffffffffffffffffffffffffffff169060200190929190803590602001909291908035906020019092919080359060200190929190803590602001906401000000008111156101cb57600080fd5b8201836020820111156101dd57600080fd5b803590602001918460018302840111640100000000831117156101ff57600080fd5b91908080601f016020809104026020016040519081016040528093929190818152602001838380828437600081840152601f19601f8201169050808301925050505050505091929192905050506106ab565b604051808273ffffffffffffffffffffffffffffffffffffffff1673ffffffffffffffffffffffffffffffffffffffff16815260200191505060405180910390f35b34801561029f57600080fd5b506102a8610d23565b604051808273ffffffffffffffffffffffffffffffffffffffff1673ffffffffffffffffffffffffffffffffffffffff16815260200191505060405180910390f35b3480156102f657600080fd5b506102ff610d49565b604051808215151515815260200191505060405180910390f35b34801561032557600080fd5b506103686004803603602081101561033c57600080fd5b81019080803573ffffffffffffffffffffffffffffffffffffffff169060200190929190505050610d60565b604051808215151515815260200191505060405180910390f35b34801561038e57600080fd5b50610397610ec2565b604051808273ffffffffffffffffffffffffffffffffffffffff1673ffffffffffffffffffffffffffffffffffffffff16815260200191505060405180910390f35b3480156103e557600080fd5b506103ee610eec565b005b6000806000806000600180549050600260006001600081548110151561041257fe5b9060005260206000200160009054906101000a900473ffffffffffffffffffffffffffffffffffffffff1673ffffffffffffffffffffffffffffffffffffffff1673ffffffffffffffffffffffffffffffffffffffff16815260200190815260200160002060020154600260006001600081548110151561048f57fe5b9060005260206000200160009054906101000a900473ffffffffffffffffffffffffffffffffffffffff1673ffffffffffffffffffffffffffffffffffffffff1673ffffffffffffffffffffffffffffffffffffffff168152602001908152602001600020600001600081548110151561050557fe5b9060005260206000200160009054906101000a900473ffffffffffffffffffffffffffffffffffffffff16600260006001600081548110151561054457fe5b9060005260206000200160009054906101000a900473ffffffffffffffffffffffffffffffffffffffff1673ffffffffffffffffffffffffffffffffffffffff1673ffffffffffffffffffffffffffffffffffffffff16815260200190815260200160002060000160018154811015156105ba57fe5b9060005260206000200160009054906101000a900473ffffffffffffffffffffffffffffffffffffffff1660026000600160008154811015156105f957fe5b9060005260206000200160009054906101000a900473ffffffffffffffffffffffffffffffffffffffff1673ffffffffffffffffffffffffffffffffffffffff1673ffffffffffffffffffffffffffffffffffffffff168152602001908152602001600020600001600281548110151561066f57fe5b9060005260206000200160009054906101000a900473ffffffffffffffffffffffffffffffffffffffff16945094509450945094509091929394565b60008060009054906101000a900473ffffffffffffffffffffffffffffffffffffffff1673ffffffffffffffffffffffffffffffffffffffff163373ffffffffffffffffffffffffffffffffffffffff1614151561070857600080fd5b600087878787348888610719610f81565b808881526020018773ffffffffffffffffffffffffffffffffffffffff1673ffffffffffffffffffffffffffffffffffffffff16815260200186815260200185815260200184815260200183815260200180602001828103825283818151815260200191508051906020019080838360005b838110156107a657808201518184015260208101905061078b565b50505050905090810190601f1680156107d35780820380516001836020036101000a031916815260200191505b5098505050505050505050604051809103906000f0801580156107fa573d6000803e3d6000fd5b5090508073ffffffffffffffffffffffffffffffffffffffff166108fc349081150290604051600060405180830381858888f19350505050158015610843573d6000803e3d6000fd5b50600260008873ffffffffffffffffffffffffffffffffffffffff1673ffffffffffffffffffffffffffffffffffffffff16815260200190815260200160002060030160009054906101000a900460ff161515610af0576001600260008973ffffffffffffffffffffffffffffffffffffffff1673ffffffffffffffffffffffffffffffffffffffff16815260200190815260200160002060030160006101000a81548160ff021916908315150217905550600260008873ffffffffffffffffffffffffffffffffffffffff1673ffffffffffffffffffffffffffffffffffffffff1681526020019081526020016000206002016000815480929190600101919050555060018790806001815401808255809150509060018203906000526020600020016000909192909190916101000a81548173ffffffffffffffffffffffffffffffffffffffff021916908373ffffffffffffffffffffffffffffffffffffffff160217905550506001600260008973ffffffffffffffffffffffffffffffffffffffff1673ffffffffffffffffffffffffffffffffffffffff16815260200190815260200160002060010160008373ffffffffffffffffffffffffffffffffffffffff1673ffffffffffffffffffffffffffffffffffffffff16815260200190815260200160002060006101000a81548160ff021916908315150217905550600260008873ffffffffffffffffffffffffffffffffffffffff1673ffffffffffffffffffffffffffffffffffffffff1681526020019081526020016000206000018190806001815401808255809150509060018203906000526020600020016000909192909190916101000a81548173ffffffffffffffffffffffffffffffffffffffff021916908373ffffffffffffffffffffffffffffffffffffffff16021790555050610c81565b600260008873ffffffffffffffffffffffffffffffffffffffff1673ffffffffffffffffffffffffffffffffffffffff168152602001908152602001600020600201600081548092919060010191905055506001600260008973ffffffffffffffffffffffffffffffffffffffff1673ffffffffffffffffffffffffffffffffffffffff16815260200190815260200160002060010160008373ffffffffffffffffffffffffffffffffffffffff1673ffffffffffffffffffffffffffffffffffffffff16815260200190815260200160002060006101000a81548160ff021916908315150217905550600260008873ffffffffffffffffffffffffffffffffffffffff1673ffffffffffffffffffffffffffffffffffffffff1681526020019081526020016000206000018190806001815401808255809150509060018203906000526020600020016000909192909190916101000a81548173ffffffffffffffffffffffffffffffffffffffff021916908373ffffffffffffffffffffffffffffffffffffffff160217905550505b7fdace2df65eba37a3d38539a689f5f44066e718736a6a3d3afafebd40306073488782604051808373ffffffffffffffffffffffffffffffffffffffff1673ffffffffffffffffffffffffffffffffffffffff1681526020018273ffffffffffffffffffffffffffffffffffffffff1673ffffffffffffffffffffffffffffffffffffffff1681526020019250505060405180910390a1509695505050505050565b600560009054906101000a900473ffffffffffffffffffffffffffffffffffffffff1681565b6000600560149054906101000a900460ff16905090565b600060608273ffffffffffffffffffffffffffffffffffffffff166040516024016040516020818303038152906040527fc43d4a59000000000000000000000000000000000000000000000000000000007bffffffffffffffffffffffffffffffffffffffffffffffffffffffff19166020820180517bffffffffffffffffffffffffffffffffffffffffffffffffffffffff83818316178352505050506040518082805190602001908083835b602083101515610e335780518252602082019150602081019050602083039250610e0e565b6001836020036101000a0380198251168184511680821785525050505050509050019150506000604051808303816000865af19150503d8060008114610e95576040519150601f19603f3d011682016040523d82523d6000602084013e610e9a565b606091505b50600560148294508391906101000a81548160ff021916908315150217905550505050919050565b6000600560009054906101000a900473ffffffffffffffffffffffffffffffffffffffff16905090565b6000809054906101000a900473ffffffffffffffffffffffffffffffffffffffff1673ffffffffffffffffffffffffffffffffffffffff163373ffffffffffffffffffffffffffffffffffffffff16141515610f4757600080fd5b6000809054906101000a900473ffffffffffffffffffffffffffffffffffffffff1673ffffffffffffffffffffffffffffffffffffffff16ff5b604051610fad80610f928339019056fe608060405260646008556000600b60006101000a81548160ff021916908315150217905550604051610fad380380610fad833981018060405260e081101561004657600080fd5b81019080805190602001909291908051906020019092919080519060200190929190805190602001909291908051906020019092919080519060200190929190805164010000000081111561009a57600080fd5b828101905060208101848111156100b057600080fd5b81518560018202830111640100000000821117156100cd57600080fd5b505092919050505086420160008190555060028690806001815401808255809150509060018203906000526020600020016000909192909190916101000a81548173ffffffffffffffffffffffffffffffffffffffff021916908373ffffffffffffffffffffffffffffffffffffffff160217905550506000600360008873ffffffffffffffffffffffffffffffffffffffff1673ffffffffffffffffffffffffffffffffffffffff16815260200190815260200160002060006101000a81548160ff02191690831515021790555032600460006101000a81548173ffffffffffffffffffffffffffffffffffffffff021916908373ffffffffffffffffffffffffffffffffffffffff160217905550846006600101819055508360066000018190555082600a8190555081874201016001819055508060059080519060200190610219929190610226565b50505050505050506102cb565b828054600181600116156101000203166002900490600052602060002090601f016020900481019282601f1061026757805160ff1916838001178555610295565b82800160010185558215610295579182015b82811115610294578251825591602001919060010190610279565b5b5090506102a291906102a6565b5090565b6102c891905b808211156102c45760008160009055506001016102ac565b5090565b90565b610cd3806102da6000396000f3fe608060405260043610610099576000357c0100000000000000000000000000000000000000000000000000000000900463ffffffff168063295a52121461009b578063481c6a75146100ca578063484cb004146101215780634978f927146101385780634a85b5f4146102005780634c5bbf091461025c578063919840ad14610299578063f005b2c4146102c8578063ff1e00131461041d575b005b3480156100a757600080fd5b506100b0610489565b604051808215151515815260200191505060405180910390f35b3480156100d657600080fd5b506100df61049c565b604051808273ffffffffffffffffffffffffffffffffffffffff1673ffffffffffffffffffffffffffffffffffffffff16815260200191505060405180910390f35b34801561012d57600080fd5b506101366104c2565b005b34801561014457600080fd5b506101fe6004803603602081101561015b57600080fd5b810190808035906020019064010000000081111561017857600080fd5b82018360208201111561018a57600080fd5b803590602001918460018302840111640100000000831117156101ac57600080fd5b91908080601f016020809104026020016040519081016040528093929190818152602001838380828437600081840152601f19601f820116905080830192505050505050509192919290505050610559565b005b6102426004803603602081101561021657600080fd5b81019080803573ffffffffffffffffffffffffffffffffffffffff1690602001909291905050506105e7565b604051808215151515815260200191505060405180910390f35b34801561026857600080fd5b506102976004803603602081101561027f57600080fd5b810190808035151590602001909291905050506106c4565b005b3480156102a557600080fd5b506102ae61073d565b604051808215151515815260200191505060405180910390f35b3480156102d457600080fd5b506103a2600480360360608110156102eb57600080fd5b810190808035906020019064010000000081111561030857600080fd5b82018360208201111561031a57600080fd5b8035906020019184600183028401116401000000008311171561033c57600080fd5b91908080601f016020809104026020016040519081016040528093929190818152602001838380828437600081840152601f19601f82011690508083019250505050505050919291929080359060200190929190803590602001909291905050506107ee565b6040518080602001828103825283818151815260200191508051906020019080838360005b838110156103e25780820151818401526020810190506103c7565b50505050905090810190601f16801561040f5780820380516001836020036101000a031916815260200191505b509250505060405180910390f35b34801561042957600080fd5b50610432610aea565b6040518080602001828103825283818151815260200191508051906020019060200280838360005b8381101561047557808201518184015260208101905061045a565b505050509050019250505060405180910390f35b600b60009054906101000a900460ff1681565b600460009054906101000a900473ffffffffffffffffffffffffffffffffffffffff1681565b3373ffffffffffffffffffffffffffffffffffffffff16600460009054906101000a900473ffffffffffffffffffffffffffffffffffffffff1673ffffffffffffffffffffffffffffffffffffffff1614151561051e57600080fd5b600460009054906101000a900473ffffffffffffffffffffffffffffffffffffffff1673ffffffffffffffffffffffffffffffffffffffff16ff5b6002600081548110151561056957fe5b9060005260206000200160009054906101000a900473ffffffffffffffffffffffffffffffffffffffff1673ffffffffffffffffffffffffffffffffffffffff163373ffffffffffffffffffffffffffffffffffffffff161415156105cd57600080fd5b80600990805190602001906105e3929190610c02565b5050565b60003373ffffffffffffffffffffffffffffffffffffffff16600460009054906101000a900473ffffffffffffffffffffffffffffffffffffffff1673ffffffffffffffffffffffffffffffffffffffff1614151561064557600080fd5b600a543414151561065557600080fd5b60028290806001815401808255809150509060018203906000526020600020016000909192909190916101000a81548173ffffffffffffffffffffffffffffffffffffffff021916908373ffffffffffffffffffffffffffffffffffffffff1602179055505060019050919050565b3373ffffffffffffffffffffffffffffffffffffffff16600460009054906101000a900473ffffffffffffffffffffffffffffffffffffffff1673ffffffffffffffffffffffffffffffffffffffff1614151561072057600080fd5b80600b60006101000a81548160ff02191690831515021790555050565b6000806000905060008090505b6002805490508110156107d6573373ffffffffffffffffffffffffffffffffffffffff1660028281548110151561077d57fe5b9060005260206000200160009054906101000a900473ffffffffffffffffffffffffffffffffffffffff1673ffffffffffffffffffffffffffffffffffffffff1614156107c957600191505b808060010191505061074a565b508015156107e357600080fd5b600054421191505090565b606060015460005401421115801561080857506000544210155b151561081357600080fd5b8380519060200120600960405180828054600181600116156101000203166002900480156108785780601f10610856576101008083540402835291820191610878565b820191906000526020600020905b815481529060010190602001808311610864575b505091505060405180910390201480156108bb575060026008540a60026108a460066001015486610bd4565b0a60026108b660066000015486610bd4565b0a0111155b15156108c657600080fd5b600360003373ffffffffffffffffffffffffffffffffffffffff1673ffffffffffffffffffffffffffffffffffffffff16815260200190815260200160002060009054906101000a900460ff1615151561091f57600080fd5b6001600360003373ffffffffffffffffffffffffffffffffffffffff1673ffffffffffffffffffffffffffffffffffffffff16815260200190815260200160002060006101000a81548160ff021916908315150217905550600b60009054906101000a900460ff16156109da573373ffffffffffffffffffffffffffffffffffffffff166108fc600a549081150290604051600060405180830381858888f193505050501580156109d4573d6000803e3d6000fd5b50610ae2565b600c3390806001815401808255809150509060018203906000526020600020016000909192909190916101000a81548173ffffffffffffffffffffffffffffffffffffffff021916908373ffffffffffffffffffffffffffffffffffffffff1602179055505060058054600181600116156101000203166002900480601f016020809104026020016040519081016040528092919081815260200182805460018160011615610100020316600290048015610ad65780601f10610aab57610100808354040283529160200191610ad6565b820191906000526020600020905b815481529060010190602001808311610ab957829003601f168201915b50505050509050610ae3565b5b9392505050565b60603373ffffffffffffffffffffffffffffffffffffffff16600460009054906101000a900473ffffffffffffffffffffffffffffffffffffffff1673ffffffffffffffffffffffffffffffffffffffff16141515610b4857600080fd5b600c805480602002602001604051908101604052809291908181526020018280548015610bca57602002820191906000526020600020905b8160009054906101000a900473ffffffffffffffffffffffffffffffffffffffff1673ffffffffffffffffffffffffffffffffffffffff1681526020019060010190808311610b80575b5050505050905090565b600081831115610be8578183039050610bfc565b8183111515610bfb578282039050610bfc565b5b92915050565b828054600181600116156101000203166002900490600052602060002090601f016020900481019282601f10610c4357805160ff1916838001178555610c71565b82800160010185558215610c71579182015b82811115610c70578251825591602001919060010190610c55565b5b509050610c7e9190610c82565b5090565b610ca491905b80821115610ca0576000816000905550600101610c88565b5090565b9056fea165627a7a723058203c113fb5ab925cebe67950f1b22baf06409ed28bf59176c4990a3c5b53c3e3db0029a165627a7a72305820baefbf816b9c0bc542def91c757992a47e426af51b4c7befe5f5fd961b1f5b6f0029",
  "source": "pragma solidity ^0.5.0;\r\nimport \"./Capsule.sol\";\r\n\r\ncontract manage {\r\n    address payable private owner;  // 서버\r\n    address[] list; // 고객 명단(지갑 주소)\r\n    mapping(address => Capsul) cap; // 고객 명단을 통해 저장하는 캡슐 개수와 내용, 고객의 존재 여부\r\n    bytes32 ok = \"The process was success\"; // 성공시 출력\r\n    bytes32 fail = \"The process was fail\";  // 실패시 출력\r\n    \r\n    event last(address owner, address caps);\r\n    \r\n    struct Capsul {\r\n        address[] capList;\r\n        mapping(address => bool) capsule;\r\n        uint num;\r\n        bool exist;\r\n    }\r\n    \r\n    constructor () public {\r\n        owner = msg.sender;\r\n    }\r\n    \r\n    modifier OwnerShip() {  // 서버가 실행한 경우 통과\r\n        require(msg.sender == owner);\r\n        _;\r\n    }\r\n    \r\n    /*\r\n    캡슐을 묻는 함수(hash 값을 바로 받는 걸로 수정하기)\r\n\r\n    input : 기간, 캡슐 묻는 사람, 실행 하는 위치 x, y\r\n    output : 만든 캡슐 컨트랙트 주소\r\n    */\r\n    function Bury(uint _period, address _owner, uint _x, uint _y, uint _limit, string memory _hash) public OwnerShip payable returns(address) {\r\n        Capsule capsule = new Capsule(_period, _owner, _x, _y, msg.value, _limit, _hash);\r\n        address(capsule).transfer(msg.value);\r\n        if (!cap[_owner].exist) {\r\n            cap[_owner].exist = true;\r\n            cap[_owner].num++;\r\n            list.push(_owner);\r\n            cap[_owner].capsule[address(capsule)] = true;\r\n            cap[_owner].capList.push(address(capsule));\r\n        }else {\r\n            cap[_owner].num++;\r\n            cap[_owner].capsule[address(capsule)] = true;\r\n            cap[_owner].capList.push(address(capsule));\r\n        }\r\n        \r\n        \r\n        emit last(_owner, address(capsule));\r\n    }\r\n    address public last_capsule;\r\n    \r\n    function CheckLastCapsule() public view returns(address) {\r\n        return last_capsule;\r\n    }\r\n    \r\n    // function checking(address _owner) public view returns (uint, uint) {\r\n    //     return ();\r\n    // }\r\n    \r\n    /*\r\n    서비스 종료시 실행하는 함수\r\n    서버만 실행 가능\r\n    cap[list[i]].capList[j] == all address of capsule\r\n    */\r\n    function checking() public view returns(uint , uint, address, address, address) {\r\n        return(list.length, cap[list[0]].num, cap[list[0]].capList[0], cap[list[0]].capList[1], cap[list[0]].capList[2]);\r\n    }\r\n    function showmode(Capsule tmp) public returns(bool) {\r\n        bytes memory a;\r\n        (mode, a) = address(tmp).call(abi.encodeWithSignature(\"ShowMode()\"));\r\n    }\r\n    bool mode;\r\n    function show() public view returns(bool) {\r\n        return mode;\r\n    }\r\n    function ServiceEnd() public OwnerShip {\r\n        selfdestruct(owner);\r\n    }\r\n    \r\n    function() external payable {\r\n    }\r\n}\r\n",
  "sourcePath": "C:/Users/SeungjinLee/Desktop/founders/truffle_test/contracts/Manage.sol",
  "compiler": {
    "name": "solc",
    "version": "0.5.0+commit.1d4f565a.Emscripten.clang"
  },
  "schemaVersion": "3.0.11",
  "updatedAt": "2019-08-01T18:15:28.452Z",
  "devdoc": {
    "methods": {}
  },
  "userdoc": {
    "methods": {}
  }
}