{
  "contractName": "Capsule",
  "abi": [
    {
      "constant": true,
      "inputs": [],
      "name": "mode",
      "outputs": [
        {
          "name": "",
          "type": "bool"
        }
      ],
      "payable": false,
      "stateMutability": "view",
      "type": "function"
    },
    {
      "constant": true,
      "inputs": [],
      "name": "manager",
      "outputs": [
        {
          "name": "",
          "type": "address"
        }
      ],
      "payable": false,
      "stateMutability": "view",
      "type": "function"
    },
    {
      "inputs": [
        {
          "name": "_period",
          "type": "uint256"
        },
        {
          "name": "_owner",
          "type": "address"
        },
        {
          "name": "_latitude",
          "type": "uint256"
        },
        {
          "name": "_longitude",
          "type": "uint256"
        },
        {
          "name": "_key",
          "type": "string"
        },
        {
          "name": "value",
          "type": "uint256"
        },
        {
          "name": "_limit",
          "type": "uint256"
        },
        {
          "name": "_hash",
          "type": "string"
        }
      ],
      "payable": true,
      "stateMutability": "payable",
      "type": "constructor"
    },
    {
      "payable": true,
      "stateMutability": "payable",
      "type": "fallback"
    },
    {
      "constant": true,
      "inputs": [],
      "name": "check",
      "outputs": [
        {
          "name": "",
          "type": "bool"
        }
      ],
      "payable": false,
      "stateMutability": "view",
      "type": "function"
    },
    {
      "constant": false,
      "inputs": [
        {
          "name": "_owner",
          "type": "address"
        }
      ],
      "name": "Participate",
      "outputs": [
        {
          "name": "",
          "type": "bool"
        }
      ],
      "payable": true,
      "stateMutability": "payable",
      "type": "function"
    },
    {
      "constant": true,
      "inputs": [],
      "name": "BreakCapsule1",
      "outputs": [
        {
          "name": "",
          "type": "address[]"
        }
      ],
      "payable": false,
      "stateMutability": "view",
      "type": "function"
    },
    {
      "constant": false,
      "inputs": [],
      "name": "BreakCapsule2",
      "outputs": [],
      "payable": false,
      "stateMutability": "nonpayable",
      "type": "function"
    },
    {
      "constant": false,
      "inputs": [
        {
          "name": "_mode",
          "type": "bool"
        }
      ],
      "name": "ModeChange",
      "outputs": [],
      "payable": false,
      "stateMutability": "nonpayable",
      "type": "function"
    },
    {
      "constant": false,
      "inputs": [
        {
          "name": "_key",
          "type": "string"
        },
        {
          "name": "_latitude",
          "type": "uint256"
        },
        {
          "name": "_logitude",
          "type": "uint256"
        }
      ],
      "name": "Open",
      "outputs": [
        {
          "name": "",
          "type": "string"
        }
      ],
      "payable": false,
      "stateMutability": "nonpayable",
      "type": "function"
    }
  ],
  "bytecode": "0x608060405260646008556000600b60006101000a81548160ff021916908315150217905550604051610de6380380610de6833981018060405261010081101561004757600080fd5b8101908080519060200190929190805190602001909291908051906020019092919080519060200190929190805164010000000081111561008757600080fd5b8281019050602081018481111561009d57600080fd5b81518560018202830111640100000000821117156100ba57600080fd5b5050929190602001805190602001909291908051906020019092919080516401000000008111156100ea57600080fd5b8281019050602081018481111561010057600080fd5b815185600182028301116401000000008211171561011d57600080fd5b505092919050505087420160008190555060028790806001815401808255809150509060018203906000526020600020016000909192909190916101000a81548173ffffffffffffffffffffffffffffffffffffffff021916908373ffffffffffffffffffffffffffffffffffffffff160217905550506000600360008973ffffffffffffffffffffffffffffffffffffffff1673ffffffffffffffffffffffffffffffffffffffff16815260200190815260200160002060006101000a81548160ff02191690831515021790555032600460006101000a81548173ffffffffffffffffffffffffffffffffffffffff021916908373ffffffffffffffffffffffffffffffffffffffff1602179055508560066001018190555084600660000181905550836009908051906020019061025792919061028e565b5082600a819055508188420101600181905550806005908051906020019061028092919061028e565b505050505050505050610333565b828054600181600116156101000203166002900490600052602060002090601f016020900481019282601f106102cf57805160ff19168380011785556102fd565b828001600101855582156102fd579182015b828111156102fc5782518255916020019190600101906102e1565b5b50905061030a919061030e565b5090565b61033091905b8082111561032c576000816000905550600101610314565b5090565b90565b610aa4806103426000396000f3fe60806040526004361061007b5760003560e01c80634c5bbf091161004e5780634c5bbf0914610176578063919840ad146101b3578063f005b2c4146101e2578063ff1e0013146103375761007b565b8063295a52121461007d578063481c6a75146100ac578063484cb004146101035780634a85b5f41461011a575b005b34801561008957600080fd5b506100926103a3565b604051808215151515815260200191505060405180910390f35b3480156100b857600080fd5b506100c16103b6565b604051808273ffffffffffffffffffffffffffffffffffffffff1673ffffffffffffffffffffffffffffffffffffffff16815260200191505060405180910390f35b34801561010f57600080fd5b506101186103dc565b005b61015c6004803603602081101561013057600080fd5b81019080803573ffffffffffffffffffffffffffffffffffffffff169060200190929190505050610471565b604051808215151515815260200191505060405180910390f35b34801561018257600080fd5b506101b16004803603602081101561019957600080fd5b8101908080351515906020019092919050505061054a565b005b3480156101bf57600080fd5b506101c86105c1565b604051808215151515815260200191505060405180910390f35b3480156101ee57600080fd5b506102bc6004803603606081101561020557600080fd5b810190808035906020019064010000000081111561022257600080fd5b82018360208201111561023457600080fd5b8035906020019184600183028401116401000000008311171561025657600080fd5b91908080601f016020809104026020016040519081016040528093929190818152602001838380828437600081840152601f19601f820116905080830192505050505050509192919290803590602001909291908035906020019092919050505061066e565b6040518080602001828103825283818151815260200191508051906020019080838360005b838110156102fc5780820151818401526020810190506102e1565b50505050905090810190601f1680156103295780820380516001836020036101000a031916815260200191505b509250505060405180910390f35b34801561034357600080fd5b5061034c610964565b6040518080602001828103825283818151815260200191508051906020019060200280838360005b8381101561038f578082015181840152602081019050610374565b505050509050019250505060405180910390f35b600b60009054906101000a900460ff1681565b600460009054906101000a900473ffffffffffffffffffffffffffffffffffffffff1681565b3373ffffffffffffffffffffffffffffffffffffffff16600460009054906101000a900473ffffffffffffffffffffffffffffffffffffffff1673ffffffffffffffffffffffffffffffffffffffff161461043657600080fd5b600460009054906101000a900473ffffffffffffffffffffffffffffffffffffffff1673ffffffffffffffffffffffffffffffffffffffff16ff5b60003373ffffffffffffffffffffffffffffffffffffffff16600460009054906101000a900473ffffffffffffffffffffffffffffffffffffffff1673ffffffffffffffffffffffffffffffffffffffff16146104cd57600080fd5b600a5434146104db57600080fd5b60028290806001815401808255809150509060018203906000526020600020016000909192909190916101000a81548173ffffffffffffffffffffffffffffffffffffffff021916908373ffffffffffffffffffffffffffffffffffffffff1602179055505060019050919050565b3373ffffffffffffffffffffffffffffffffffffffff16600460009054906101000a900473ffffffffffffffffffffffffffffffffffffffff1673ffffffffffffffffffffffffffffffffffffffff16146105a457600080fd5b80600b60006101000a81548160ff02191690831515021790555050565b6000806000905060008090505b600280549050811015610658573373ffffffffffffffffffffffffffffffffffffffff16600282815481106105ff57fe5b9060005260206000200160009054906101000a900473ffffffffffffffffffffffffffffffffffffffff1673ffffffffffffffffffffffffffffffffffffffff16141561064b57600191505b80806001019150506105ce565b508061066357600080fd5b600054421191505090565b606060015460005401421115801561068857506000544210155b61069157600080fd5b8380519060200120600960405180828054600181600116156101000203166002900480156106f65780601f106106d45761010080835404028352918201916106f6565b820191906000526020600020905b8154815290600101906020018083116106e2575b50509150506040518091039020148015610739575060026008540a600261072260066001015486610a4c565b0a600261073460066000015486610a4c565b0a0111155b61074257600080fd5b600360003373ffffffffffffffffffffffffffffffffffffffff1673ffffffffffffffffffffffffffffffffffffffff16815260200190815260200160002060009054906101000a900460ff161561079957600080fd5b6001600360003373ffffffffffffffffffffffffffffffffffffffff1673ffffffffffffffffffffffffffffffffffffffff16815260200190815260200160002060006101000a81548160ff021916908315150217905550600b60009054906101000a900460ff1615610854573373ffffffffffffffffffffffffffffffffffffffff166108fc600a549081150290604051600060405180830381858888f1935050505015801561084e573d6000803e3d6000fd5b5061095c565b600c3390806001815401808255809150509060018203906000526020600020016000909192909190916101000a81548173ffffffffffffffffffffffffffffffffffffffff021916908373ffffffffffffffffffffffffffffffffffffffff1602179055505060058054600181600116156101000203166002900480601f0160208091040260200160405190810160405280929190818152602001828054600181600116156101000203166002900480156109505780601f1061092557610100808354040283529160200191610950565b820191906000526020600020905b81548152906001019060200180831161093357829003601f168201915b5050505050905061095d565b5b9392505050565b60603373ffffffffffffffffffffffffffffffffffffffff16600460009054906101000a900473ffffffffffffffffffffffffffffffffffffffff1673ffffffffffffffffffffffffffffffffffffffff16146109c057600080fd5b600c805480602002602001604051908101604052809291908181526020018280548015610a4257602002820191906000526020600020905b8160009054906101000a900473ffffffffffffffffffffffffffffffffffffffff1673ffffffffffffffffffffffffffffffffffffffff16815260200190600101908083116109f8575b5050505050905090565b600081831115610a60578183039050610a72565b818311610a71578282039050610a72565b5b9291505056fea165627a7a72305820395553bc109335f1ba92e6fcd427c444cf4712548b3ecf1012c901a2bbf1867b0029",
  "source": "pragma solidity ^0.5.0;\r\n\r\n\r\ncontract Capsule {\r\n    uint time;  // 캡슐을 여는 시간\r\n    uint limit; // 캡슐 여는 기간\r\n    address[] owner;    // 캡슐에 넣은 사람들 지갑 주소\r\n    mapping(address => bool) taked;\r\n    address payable public manager;    // 서버\r\n    string hash;    // ipfs 해시값\r\n    coordinate pos; // 묻은 좌표\r\n    uint radius = 100;  // 한계 거리 (m)\r\n    string key;\r\n    uint balance;\r\n    bool public mode = false;\r\n    address[] moneyreturn;\r\n\r\n    struct coordinate {\r\n        uint longitude;\r\n        uint latitude;\r\n    }\r\n    \r\n    /*\r\n    생성자\r\n    input : 시간 얼마나 뒤에 열거야, 묻는 사람, x좌표, y좌표, 키\r\n    */\r\n    constructor (uint _period, address _owner, uint _latitude, uint _longitude, string memory _key, uint value, uint _limit, string memory _hash) public payable {\r\n        time = now + _period;\r\n        owner.push(_owner);\r\n        taked[_owner] = false;\r\n        manager = tx.origin;\r\n        pos.latitude = _latitude;\r\n        pos.longitude = _longitude;\r\n        key = _key;\r\n        balance = value;\r\n        limit = now + _period + _limit;\r\n        hash = _hash;\r\n    }\r\n    \r\n    modifier ManagerShip() {    // 서버만 호출가능\r\n        require(manager == msg.sender);\r\n        _;\r\n    }\r\n    \r\n    modifier TimeLimit {\r\n        require(now <= time + limit && now >= time);\r\n        _;\r\n    }\r\n    /*\r\n    두 입력의 차 리턴\r\n    */\r\n    function AbsSubtract(uint a, uint b) private pure returns(uint) {\r\n        if (a > b) return a - b;\r\n        else if (a <= b) return b - a;\r\n    }\r\n    \r\n    /*\r\n    시간 지났는지 아닌지 체크\r\n    \r\n    캡슐 주인들만 확인 가능\r\n\r\n    output : 시간 지났으면 true, 아니면 false\r\n    */\r\n    function check() public view returns(bool) {\r\n        bool avail = false;\r\n        for (uint i = 0 ; i < owner.length ; i++) {\r\n            if (owner[i] == msg.sender) avail = true;\r\n        }\r\n        require(avail);\r\n        return (now > time);\r\n    }\r\n    \r\n    /*\r\n    참여자 추가 함수\r\n\r\n    input : 참여자 address\r\n    output : 성공시 true\r\n    */\r\n    function Participate(address _owner) public ManagerShip payable returns(bool) {\r\n        require(msg.value == balance);\r\n        owner.push(_owner);\r\n        return true;\r\n    }\r\n    \r\n    \r\n    function BreakCapsule1() public view ManagerShip returns(address[] memory) {\r\n        return moneyreturn;\r\n    }\r\n    \r\n    function BreakCapsule2() public ManagerShip {\r\n        selfdestruct(manager);\r\n    }\r\n    \r\n    /*\r\n    true : service End\r\n    */\r\n    function ModeChange(bool _mode) public ManagerShip {\r\n        mode = _mode;\r\n    }\r\n    \r\n    /*\r\n    열기 함수\r\n    input : 키, 장소, 경도, 위도\r\n    output : 저장되어진 해시값\r\n    */\r\n    function Open(string memory _key, uint _latitude, uint _logitude) public TimeLimit returns(string memory){\r\n        require(keccak256(bytes(key)) == keccak256(bytes(_key)) && (AbsSubtract(pos.longitude, _logitude) ** 2 + AbsSubtract(pos.latitude, _latitude) ** 2 <= radius ** 2));\r\n        require(!taked[msg.sender]);\r\n        taked[msg.sender] = true;\r\n        if (mode) {\r\n            msg.sender.transfer(balance);\r\n        } else {\r\n            moneyreturn.push(msg.sender);\r\n            return hash;\r\n        }\r\n    }\r\n    \r\n    \r\n    \r\n    function() external payable {}\r\n}",
  "sourcePath": "C:/Users/SeungjinLee/Desktop/founders/hack/contracts/Capsule.sol",
  "compiler": {
    "name": "solc",
    "version": "0.5.8+commit.23d335f2.Emscripten.clang"
  },
  "schemaVersion": "3.0.11",
  "updatedAt": "2019-08-01T12:26:24.173Z",
  "devdoc": {
    "methods": {}
  },
  "userdoc": {
    "methods": {}
  }
}