{
  "contractName": "manage",
  "abi": [
    {
      "inputs": [],
      "payable": false,
      "stateMutability": "nonpayable",
      "type": "constructor"
    },
    {
      "payable": true,
      "stateMutability": "payable",
      "type": "fallback"
    },
    {
      "constant": false,
      "inputs": [
        {
          "name": "_period",
          "type": "uint256"
        },
        {
          "name": "_owner",
          "type": "address"
        },
        {
          "name": "_x",
          "type": "uint256"
        },
        {
          "name": "_y",
          "type": "uint256"
        },
        {
          "name": "_key",
          "type": "string"
        },
        {
          "name": "_limit",
          "type": "uint256"
        },
        {
          "name": "_hash",
          "type": "string"
        }
      ],
      "name": "Bury",
      "outputs": [
        {
          "name": "",
          "type": "address"
        }
      ],
      "payable": true,
      "stateMutability": "payable",
      "type": "function"
    },
    {
      "constant": true,
      "inputs": [],
      "name": "CheckLastCapsule",
      "outputs": [
        {
          "name": "",
          "type": "address"
        }
      ],
      "payable": false,
      "stateMutability": "view",
      "type": "function"
    },
    {
      "constant": true,
      "inputs": [],
      "name": "checking",
      "outputs": [
        {
          "name": "",
          "type": "uint256"
        },
        {
          "name": "",
          "type": "uint256"
        },
        {
          "name": "",
          "type": "address"
        },
        {
          "name": "",
          "type": "address"
        },
        {
          "name": "",
          "type": "address"
        }
      ],
      "payable": false,
      "stateMutability": "view",
      "type": "function"
    },
    {
      "constant": false,
      "inputs": [
        {
          "name": "tmp",
          "type": "address"
        }
      ],
      "name": "showmode",
      "outputs": [
        {
          "name": "",
          "type": "bool"
        }
      ],
      "payable": false,
      "stateMutability": "nonpayable",
      "type": "function"
    },
    {
      "constant": true,
      "inputs": [],
      "name": "show",
      "outputs": [
        {
          "name": "",
          "type": "bool"
        }
      ],
      "payable": false,
      "stateMutability": "view",
      "type": "function"
    },
    {
      "constant": false,
      "inputs": [],
      "name": "ServiceEnd",
      "outputs": [],
      "payable": false,
      "stateMutability": "nonpayable",
      "type": "function"
    }
  ],
  "bytecode": "0x60806040527f5468652070726f636573732077617320737563636573730000000000000000006003557f5468652070726f6365737320776173206661696c00000000000000000000000060045534801561005857600080fd5b50336000806101000a81548173ffffffffffffffffffffffffffffffffffffffff021916908373ffffffffffffffffffffffffffffffffffffffff160217905550611d92806100a86000396000f3fe6080604052600436106100555760003560e01c806317a9b77214610057578063cc80f6f314610122578063e4f1b82514610151578063e6d5e8de1461032b578063ef008e1614610394578063fbd6622f146103eb575b005b34801561006357600080fd5b5061006c610402565b604051808681526020018581526020018473ffffffffffffffffffffffffffffffffffffffff1673ffffffffffffffffffffffffffffffffffffffff1681526020018373ffffffffffffffffffffffffffffffffffffffff1673ffffffffffffffffffffffffffffffffffffffff1681526020018273ffffffffffffffffffffffffffffffffffffffff1673ffffffffffffffffffffffffffffffffffffffff1681526020019550505050505060405180910390f35b34801561012e57600080fd5b506101376106af565b604051808215151515815260200191505060405180910390f35b6102e9600480360360e081101561016757600080fd5b8101908080359060200190929190803573ffffffffffffffffffffffffffffffffffffffff1690602001909291908035906020019092919080359060200190929190803590602001906401000000008111156101c257600080fd5b8201836020820111156101d457600080fd5b803590602001918460018302840111640100000000831117156101f657600080fd5b91908080601f016020809104026020016040519081016040528093929190818152602001838380828437600081840152601f19601f820116905080830192505050505050509192919290803590602001909291908035906020019064010000000081111561026357600080fd5b82018360208201111561027557600080fd5b8035906020019184600183028401116401000000008311171561029757600080fd5b91908080601f016020809104026020016040519081016040528093929190818152602001838380828437600081840152601f19601f8201169050808301925050505050505091929192905050506106c6565b604051808273ffffffffffffffffffffffffffffffffffffffff1673ffffffffffffffffffffffffffffffffffffffff16815260200191505060405180910390f35b34801561033757600080fd5b5061037a6004803603602081101561034e57600080fd5b81019080803573ffffffffffffffffffffffffffffffffffffffff169060200190929190505050610d56565b604051808215151515815260200191505060405180910390f35b3480156103a057600080fd5b506103a9610eb6565b604051808273ffffffffffffffffffffffffffffffffffffffff1673ffffffffffffffffffffffffffffffffffffffff16815260200191505060405180910390f35b3480156103f757600080fd5b50610400610ee0565b005b600080600080600060018054905060026000600160008154811061042257fe5b9060005260206000200160009054906101000a900473ffffffffffffffffffffffffffffffffffffffff1673ffffffffffffffffffffffffffffffffffffffff1673ffffffffffffffffffffffffffffffffffffffff1681526020019081526020016000206002015460026000600160008154811061049d57fe5b9060005260206000200160009054906101000a900473ffffffffffffffffffffffffffffffffffffffff1673ffffffffffffffffffffffffffffffffffffffff1673ffffffffffffffffffffffffffffffffffffffff16815260200190815260200160002060000160008154811061051157fe5b9060005260206000200160009054906101000a900473ffffffffffffffffffffffffffffffffffffffff1660026000600160008154811061054e57fe5b9060005260206000200160009054906101000a900473ffffffffffffffffffffffffffffffffffffffff1673ffffffffffffffffffffffffffffffffffffffff1673ffffffffffffffffffffffffffffffffffffffff1681526020019081526020016000206000016001815481106105c257fe5b9060005260206000200160009054906101000a900473ffffffffffffffffffffffffffffffffffffffff166002600060016000815481106105ff57fe5b9060005260206000200160009054906101000a900473ffffffffffffffffffffffffffffffffffffffff1673ffffffffffffffffffffffffffffffffffffffff1673ffffffffffffffffffffffffffffffffffffffff16815260200190815260200160002060000160028154811061067357fe5b9060005260206000200160009054906101000a900473ffffffffffffffffffffffffffffffffffffffff16945094509450945094509091929394565b6000600560149054906101000a900460ff16905090565b60008060009054906101000a900473ffffffffffffffffffffffffffffffffffffffff1673ffffffffffffffffffffffffffffffffffffffff163373ffffffffffffffffffffffffffffffffffffffff161461072157600080fd5b6000888888888834898960405161073790610f73565b808981526020018873ffffffffffffffffffffffffffffffffffffffff1673ffffffffffffffffffffffffffffffffffffffff1681526020018781526020018681526020018060200185815260200184815260200180602001838103835287818151815260200191508051906020019080838360005b838110156107c85780820151818401526020810190506107ad565b50505050905090810190601f1680156107f55780820380516001836020036101000a031916815260200191505b50838103825284818151815260200191508051906020019080838360005b8381101561082e578082015181840152602081019050610813565b50505050905090810190601f16801561085b5780820380516001836020036101000a031916815260200191505b509a5050505050505050505050604051809103906000f080158015610884573d6000803e3d6000fd5b5090508073ffffffffffffffffffffffffffffffffffffffff166108fc349081150290604051600060405180830381858888f193505050501580156108cd573d6000803e3d6000fd5b50600260008973ffffffffffffffffffffffffffffffffffffffff1673ffffffffffffffffffffffffffffffffffffffff16815260200190815260200160002060030160009054906101000a900460ff16610b78576001600260008a73ffffffffffffffffffffffffffffffffffffffff1673ffffffffffffffffffffffffffffffffffffffff16815260200190815260200160002060030160006101000a81548160ff021916908315150217905550600260008973ffffffffffffffffffffffffffffffffffffffff1673ffffffffffffffffffffffffffffffffffffffff1681526020019081526020016000206002016000815480929190600101919050555060018890806001815401808255809150509060018203906000526020600020016000909192909190916101000a81548173ffffffffffffffffffffffffffffffffffffffff021916908373ffffffffffffffffffffffffffffffffffffffff160217905550506001600260008a73ffffffffffffffffffffffffffffffffffffffff1673ffffffffffffffffffffffffffffffffffffffff16815260200190815260200160002060010160008373ffffffffffffffffffffffffffffffffffffffff1673ffffffffffffffffffffffffffffffffffffffff16815260200190815260200160002060006101000a81548160ff021916908315150217905550600260008973ffffffffffffffffffffffffffffffffffffffff1673ffffffffffffffffffffffffffffffffffffffff1681526020019081526020016000206000018190806001815401808255809150509060018203906000526020600020016000909192909190916101000a81548173ffffffffffffffffffffffffffffffffffffffff021916908373ffffffffffffffffffffffffffffffffffffffff16021790555050610d09565b600260008973ffffffffffffffffffffffffffffffffffffffff1673ffffffffffffffffffffffffffffffffffffffff168152602001908152602001600020600201600081548092919060010191905055506001600260008a73ffffffffffffffffffffffffffffffffffffffff1673ffffffffffffffffffffffffffffffffffffffff16815260200190815260200160002060010160008373ffffffffffffffffffffffffffffffffffffffff1673ffffffffffffffffffffffffffffffffffffffff16815260200190815260200160002060006101000a81548160ff021916908315150217905550600260008973ffffffffffffffffffffffffffffffffffffffff1673ffffffffffffffffffffffffffffffffffffffff1681526020019081526020016000206000018190806001815401808255809150509060018203906000526020600020016000909192909190916101000a81548173ffffffffffffffffffffffffffffffffffffffff021916908373ffffffffffffffffffffffffffffffffffffffff160217905550505b80600560006101000a81548173ffffffffffffffffffffffffffffffffffffffff021916908373ffffffffffffffffffffffffffffffffffffffff16021790555050979650505050505050565b600060608273ffffffffffffffffffffffffffffffffffffffff166040516024016040516020818303038152906040527fc43d4a59000000000000000000000000000000000000000000000000000000007bffffffffffffffffffffffffffffffffffffffffffffffffffffffff19166020820180517bffffffffffffffffffffffffffffffffffffffffffffffffffffffff83818316178352505050506040518082805190602001908083835b60208310610e275780518252602082019150602081019050602083039250610e04565b6001836020036101000a0380198251168184511680821785525050505050509050019150506000604051808303816000865af19150503d8060008114610e89576040519150601f19603f3d011682016040523d82523d6000602084013e610e8e565b606091505b50600560148294508391906101000a81548160ff021916908315150217905550505050919050565b6000600560009054906101000a900473ffffffffffffffffffffffffffffffffffffffff16905090565b6000809054906101000a900473ffffffffffffffffffffffffffffffffffffffff1673ffffffffffffffffffffffffffffffffffffffff163373ffffffffffffffffffffffffffffffffffffffff1614610f3957600080fd5b6000809054906101000a900473ffffffffffffffffffffffffffffffffffffffff1673ffffffffffffffffffffffffffffffffffffffff16ff5b610de680610f818339019056fe608060405260646008556000600b60006101000a81548160ff021916908315150217905550604051610de6380380610de6833981018060405261010081101561004757600080fd5b8101908080519060200190929190805190602001909291908051906020019092919080519060200190929190805164010000000081111561008757600080fd5b8281019050602081018481111561009d57600080fd5b81518560018202830111640100000000821117156100ba57600080fd5b5050929190602001805190602001909291908051906020019092919080516401000000008111156100ea57600080fd5b8281019050602081018481111561010057600080fd5b815185600182028301116401000000008211171561011d57600080fd5b505092919050505087420160008190555060028790806001815401808255809150509060018203906000526020600020016000909192909190916101000a81548173ffffffffffffffffffffffffffffffffffffffff021916908373ffffffffffffffffffffffffffffffffffffffff160217905550506000600360008973ffffffffffffffffffffffffffffffffffffffff1673ffffffffffffffffffffffffffffffffffffffff16815260200190815260200160002060006101000a81548160ff02191690831515021790555032600460006101000a81548173ffffffffffffffffffffffffffffffffffffffff021916908373ffffffffffffffffffffffffffffffffffffffff1602179055508560066001018190555084600660000181905550836009908051906020019061025792919061028e565b5082600a819055508188420101600181905550806005908051906020019061028092919061028e565b505050505050505050610333565b828054600181600116156101000203166002900490600052602060002090601f016020900481019282601f106102cf57805160ff19168380011785556102fd565b828001600101855582156102fd579182015b828111156102fc5782518255916020019190600101906102e1565b5b50905061030a919061030e565b5090565b61033091905b8082111561032c576000816000905550600101610314565b5090565b90565b610aa4806103426000396000f3fe60806040526004361061007b5760003560e01c80634c5bbf091161004e5780634c5bbf0914610176578063919840ad146101b3578063f005b2c4146101e2578063ff1e0013146103375761007b565b8063295a52121461007d578063481c6a75146100ac578063484cb004146101035780634a85b5f41461011a575b005b34801561008957600080fd5b506100926103a3565b604051808215151515815260200191505060405180910390f35b3480156100b857600080fd5b506100c16103b6565b604051808273ffffffffffffffffffffffffffffffffffffffff1673ffffffffffffffffffffffffffffffffffffffff16815260200191505060405180910390f35b34801561010f57600080fd5b506101186103dc565b005b61015c6004803603602081101561013057600080fd5b81019080803573ffffffffffffffffffffffffffffffffffffffff169060200190929190505050610471565b604051808215151515815260200191505060405180910390f35b34801561018257600080fd5b506101b16004803603602081101561019957600080fd5b8101908080351515906020019092919050505061054a565b005b3480156101bf57600080fd5b506101c86105c1565b604051808215151515815260200191505060405180910390f35b3480156101ee57600080fd5b506102bc6004803603606081101561020557600080fd5b810190808035906020019064010000000081111561022257600080fd5b82018360208201111561023457600080fd5b8035906020019184600183028401116401000000008311171561025657600080fd5b91908080601f016020809104026020016040519081016040528093929190818152602001838380828437600081840152601f19601f820116905080830192505050505050509192919290803590602001909291908035906020019092919050505061066e565b6040518080602001828103825283818151815260200191508051906020019080838360005b838110156102fc5780820151818401526020810190506102e1565b50505050905090810190601f1680156103295780820380516001836020036101000a031916815260200191505b509250505060405180910390f35b34801561034357600080fd5b5061034c610964565b6040518080602001828103825283818151815260200191508051906020019060200280838360005b8381101561038f578082015181840152602081019050610374565b505050509050019250505060405180910390f35b600b60009054906101000a900460ff1681565b600460009054906101000a900473ffffffffffffffffffffffffffffffffffffffff1681565b3373ffffffffffffffffffffffffffffffffffffffff16600460009054906101000a900473ffffffffffffffffffffffffffffffffffffffff1673ffffffffffffffffffffffffffffffffffffffff161461043657600080fd5b600460009054906101000a900473ffffffffffffffffffffffffffffffffffffffff1673ffffffffffffffffffffffffffffffffffffffff16ff5b60003373ffffffffffffffffffffffffffffffffffffffff16600460009054906101000a900473ffffffffffffffffffffffffffffffffffffffff1673ffffffffffffffffffffffffffffffffffffffff16146104cd57600080fd5b600a5434146104db57600080fd5b60028290806001815401808255809150509060018203906000526020600020016000909192909190916101000a81548173ffffffffffffffffffffffffffffffffffffffff021916908373ffffffffffffffffffffffffffffffffffffffff1602179055505060019050919050565b3373ffffffffffffffffffffffffffffffffffffffff16600460009054906101000a900473ffffffffffffffffffffffffffffffffffffffff1673ffffffffffffffffffffffffffffffffffffffff16146105a457600080fd5b80600b60006101000a81548160ff02191690831515021790555050565b6000806000905060008090505b600280549050811015610658573373ffffffffffffffffffffffffffffffffffffffff16600282815481106105ff57fe5b9060005260206000200160009054906101000a900473ffffffffffffffffffffffffffffffffffffffff1673ffffffffffffffffffffffffffffffffffffffff16141561064b57600191505b80806001019150506105ce565b508061066357600080fd5b600054421191505090565b606060015460005401421115801561068857506000544210155b61069157600080fd5b8380519060200120600960405180828054600181600116156101000203166002900480156106f65780601f106106d45761010080835404028352918201916106f6565b820191906000526020600020905b8154815290600101906020018083116106e2575b50509150506040518091039020148015610739575060026008540a600261072260066001015486610a4c565b0a600261073460066000015486610a4c565b0a0111155b61074257600080fd5b600360003373ffffffffffffffffffffffffffffffffffffffff1673ffffffffffffffffffffffffffffffffffffffff16815260200190815260200160002060009054906101000a900460ff161561079957600080fd5b6001600360003373ffffffffffffffffffffffffffffffffffffffff1673ffffffffffffffffffffffffffffffffffffffff16815260200190815260200160002060006101000a81548160ff021916908315150217905550600b60009054906101000a900460ff1615610854573373ffffffffffffffffffffffffffffffffffffffff166108fc600a549081150290604051600060405180830381858888f1935050505015801561084e573d6000803e3d6000fd5b5061095c565b600c3390806001815401808255809150509060018203906000526020600020016000909192909190916101000a81548173ffffffffffffffffffffffffffffffffffffffff021916908373ffffffffffffffffffffffffffffffffffffffff1602179055505060058054600181600116156101000203166002900480601f0160208091040260200160405190810160405280929190818152602001828054600181600116156101000203166002900480156109505780601f1061092557610100808354040283529160200191610950565b820191906000526020600020905b81548152906001019060200180831161093357829003601f168201915b5050505050905061095d565b5b9392505050565b60603373ffffffffffffffffffffffffffffffffffffffff16600460009054906101000a900473ffffffffffffffffffffffffffffffffffffffff1673ffffffffffffffffffffffffffffffffffffffff16146109c057600080fd5b600c805480602002602001604051908101604052809291908181526020018280548015610a4257602002820191906000526020600020905b8160009054906101000a900473ffffffffffffffffffffffffffffffffffffffff1673ffffffffffffffffffffffffffffffffffffffff16815260200190600101908083116109f8575b5050505050905090565b600081831115610a60578183039050610a72565b818311610a71578282039050610a72565b5b9291505056fea165627a7a723058204d6bf185a9da8106503a547fac2c0bc368c59e8dd88fb4837b5ff66600a9e02f0029a165627a7a723058203cf9f46887239c10887b1928028d5e5fcdc0704be501eafd5828b1b9976c87c80029",
  "source": "pragma solidity ^0.5.0;\r\nimport \"./capsule.sol\";\r\n\r\ncontract manage {\r\n    address payable private owner;  // 서버\r\n    address[] list; // 고객 명단(지갑 주소)\r\n    mapping(address => Capsul) cap; // 고객 명단을 통해 저장하는 캡슐 개수와 내용, 고객의 존재 여부\r\n    bytes32 ok = \"The process was success\"; // 성공시 출력\r\n    bytes32 fail = \"The process was fail\";  // 실패시 출력\r\n    \r\n    \r\n    struct Capsul {\r\n        address[] capList;\r\n        mapping(address => bool) capsule;\r\n        uint num;\r\n        bool exist;\r\n    }\r\n    \r\n    constructor () public {\r\n        owner = msg.sender;\r\n    }\r\n    \r\n    modifier OwnerShip() {  // 서버가 실행한 경우 통과\r\n        require(msg.sender == owner);\r\n        _;\r\n    }\r\n    \r\n    /*\r\n    캡슐을 묻는 함수(hash 값을 바로 받는 걸로 수정하기)\r\n\r\n    input : 기간, 캡슐 묻는 사람, 실행 하는 위치 x, y\r\n    output : 만든 캡슐 컨트랙트 주소\r\n    */\r\n    function Bury(uint _period, address _owner, uint _x, uint _y, string memory _key, uint _limit, string memory _hash) public OwnerShip payable returns(address) {\r\n        Capsule capsule = new Capsule(_period, _owner, _x, _y, _key, msg.value, _limit, _hash);\r\n        address(capsule).transfer(msg.value);\r\n        if (!cap[_owner].exist) {\r\n            cap[_owner].exist = true;\r\n            cap[_owner].num++;\r\n            list.push(_owner);\r\n            cap[_owner].capsule[address(capsule)] = true;\r\n            cap[_owner].capList.push(address(capsule));\r\n        }else {\r\n            cap[_owner].num++;\r\n            cap[_owner].capsule[address(capsule)] = true;\r\n            cap[_owner].capList.push(address(capsule));\r\n        }\r\n        \r\n        \r\n        last_capsule = address(capsule);\r\n    }\r\n    address last_capsule;\r\n    \r\n    function CheckLastCapsule() public view returns(address) {\r\n        return last_capsule;\r\n    }\r\n    \r\n    // function checking(address _owner) public view returns (uint, uint) {\r\n    //     return ();\r\n    // }\r\n    \r\n    /*\r\n    서비스 종료시 실행하는 함수\r\n    서버만 실행 가능\r\n    cap[list[i]].capList[j] == all address of capsule\r\n    */\r\n    function checking() public view returns(uint , uint, address, address, address) {\r\n        return(list.length, cap[list[0]].num, cap[list[0]].capList[0], cap[list[0]].capList[1], cap[list[0]].capList[2]);\r\n    }\r\n    function showmode(Capsule tmp) public returns(bool) {\r\n        bytes memory a;\r\n        (mode, a) = address(tmp).call(abi.encodeWithSignature(\"ShowMode()\"));\r\n    }\r\n    bool mode;\r\n    function show() public view returns(bool) {\r\n        return mode;\r\n    }\r\n    function ServiceEnd() public OwnerShip {\r\n        selfdestruct(owner);\r\n    }\r\n    \r\n    function() external payable {\r\n    }\r\n}\r\n",
  "sourcePath": "C:/Users/SeungjinLee/Desktop/founders/hack/contracts/Manage.sol",
  "compiler": {
    "name": "solc",
    "version": "0.5.8+commit.23d335f2.Emscripten.clang"
  },
  "schemaVersion": "3.0.11",
  "updatedAt": "2019-08-01T12:26:24.184Z",
  "devdoc": {
    "methods": {}
  },
  "userdoc": {
    "methods": {}
  }
}