{
  "contractName": "Capsule",
  "abi": [
    {
      "constant": true,
      "inputs": [],
      "name": "mode",
      "outputs": [
        {
          "name": "",
          "type": "bool"
        }
      ],
      "payable": false,
      "stateMutability": "view",
      "type": "function"
    },
    {
      "constant": true,
      "inputs": [],
      "name": "manager",
      "outputs": [
        {
          "name": "",
          "type": "address"
        }
      ],
      "payable": false,
      "stateMutability": "view",
      "type": "function"
    },
    {
      "inputs": [
        {
          "name": "_period",
          "type": "uint256"
        },
        {
          "name": "_owner",
          "type": "address"
        },
        {
          "name": "_latitude",
          "type": "uint256"
        },
        {
          "name": "_longitude",
          "type": "uint256"
        },
        {
          "name": "value",
          "type": "uint256"
        },
        {
          "name": "_limit",
          "type": "uint256"
        },
        {
          "name": "_hash",
          "type": "string"
        }
      ],
      "payable": true,
      "stateMutability": "payable",
      "type": "constructor"
    },
    {
      "payable": true,
      "stateMutability": "payable",
      "type": "fallback"
    },
    {
      "constant": false,
      "inputs": [
        {
          "name": "_key",
          "type": "string"
        }
      ],
      "name": "KeyRegister",
      "outputs": [],
      "payable": false,
      "stateMutability": "nonpayable",
      "type": "function"
    },
    {
      "constant": true,
      "inputs": [],
      "name": "check",
      "outputs": [
        {
          "name": "",
          "type": "bool"
        }
      ],
      "payable": false,
      "stateMutability": "view",
      "type": "function"
    },
    {
      "constant": false,
      "inputs": [
        {
          "name": "_owner",
          "type": "address"
        }
      ],
      "name": "Participate",
      "outputs": [
        {
          "name": "",
          "type": "bool"
        }
      ],
      "payable": true,
      "stateMutability": "payable",
      "type": "function"
    },
    {
      "constant": true,
      "inputs": [],
      "name": "BreakCapsule1",
      "outputs": [
        {
          "name": "",
          "type": "address[]"
        }
      ],
      "payable": false,
      "stateMutability": "view",
      "type": "function"
    },
    {
      "constant": false,
      "inputs": [],
      "name": "BreakCapsule2",
      "outputs": [],
      "payable": false,
      "stateMutability": "nonpayable",
      "type": "function"
    },
    {
      "constant": false,
      "inputs": [
        {
          "name": "_mode",
          "type": "bool"
        }
      ],
      "name": "ModeChange",
      "outputs": [],
      "payable": false,
      "stateMutability": "nonpayable",
      "type": "function"
    },
    {
      "constant": false,
      "inputs": [
        {
          "name": "_key",
          "type": "string"
        },
        {
          "name": "_latitude",
          "type": "uint256"
        },
        {
          "name": "_logitude",
          "type": "uint256"
        }
      ],
      "name": "Open",
      "outputs": [
        {
          "name": "",
          "type": "string"
        }
      ],
      "payable": false,
      "stateMutability": "nonpayable",
      "type": "function"
    }
  ],
  "bytecode": "0x608060405260646008556000600b60006101000a81548160ff021916908315150217905550604051610f80380380610f80833981018060405260e081101561004657600080fd5b81019080805190602001909291908051906020019092919080519060200190929190805190602001909291908051906020019092919080519060200190929190805164010000000081111561009a57600080fd5b828101905060208101848111156100b057600080fd5b81518560018202830111640100000000821117156100cd57600080fd5b505092919050505086420160008190555060028690806001815401808255809150509060018203906000526020600020016000909192909190916101000a81548173ffffffffffffffffffffffffffffffffffffffff021916908373ffffffffffffffffffffffffffffffffffffffff160217905550506000600360008873ffffffffffffffffffffffffffffffffffffffff1673ffffffffffffffffffffffffffffffffffffffff16815260200190815260200160002060006101000a81548160ff02191690831515021790555032600460006101000a81548173ffffffffffffffffffffffffffffffffffffffff021916908373ffffffffffffffffffffffffffffffffffffffff160217905550846006600101819055508360066000018190555082600a8190555081874201016001819055508060059080519060200190610219929190610226565b50505050505050506102cb565b828054600181600116156101000203166002900490600052602060002090601f016020900481019282601f1061026757805160ff1916838001178555610295565b82800160010185558215610295579182015b82811115610294578251825591602001919060010190610279565b5b5090506102a291906102a6565b5090565b6102c891905b808211156102c45760008160009055506001016102ac565b5090565b90565b610ca6806102da6000396000f3fe6080604052600436106100865760003560e01c80634a85b5f4116100595780634a85b5f4146101ed5780634c5bbf0914610249578063919840ad14610286578063f005b2c4146102b5578063ff1e00131461040a57610086565b8063295a521214610088578063481c6a75146100b7578063484cb0041461010e5780634978f92714610125575b005b34801561009457600080fd5b5061009d610476565b604051808215151515815260200191505060405180910390f35b3480156100c357600080fd5b506100cc610489565b604051808273ffffffffffffffffffffffffffffffffffffffff1673ffffffffffffffffffffffffffffffffffffffff16815260200191505060405180910390f35b34801561011a57600080fd5b506101236104af565b005b34801561013157600080fd5b506101eb6004803603602081101561014857600080fd5b810190808035906020019064010000000081111561016557600080fd5b82018360208201111561017757600080fd5b8035906020019184600183028401116401000000008311171561019957600080fd5b91908080601f016020809104026020016040519081016040528093929190818152602001838380828437600081840152601f19601f820116905080830192505050505050509192919290505050610544565b005b61022f6004803603602081101561020357600080fd5b81019080803573ffffffffffffffffffffffffffffffffffffffff1690602001909291905050506105ce565b604051808215151515815260200191505060405180910390f35b34801561025557600080fd5b506102846004803603602081101561026c57600080fd5b810190808035151590602001909291905050506106a7565b005b34801561029257600080fd5b5061029b61071e565b604051808215151515815260200191505060405180910390f35b3480156102c157600080fd5b5061038f600480360360608110156102d857600080fd5b81019080803590602001906401000000008111156102f557600080fd5b82018360208201111561030757600080fd5b8035906020019184600183028401116401000000008311171561032957600080fd5b91908080601f016020809104026020016040519081016040528093929190818152602001838380828437600081840152601f19601f82011690508083019250505050505050919291929080359060200190929190803590602001909291905050506107cb565b6040518080602001828103825283818151815260200191508051906020019080838360005b838110156103cf5780820151818401526020810190506103b4565b50505050905090810190601f1680156103fc5780820380516001836020036101000a031916815260200191505b509250505060405180910390f35b34801561041657600080fd5b5061041f610ac1565b6040518080602001828103825283818151815260200191508051906020019060200280838360005b83811015610462578082015181840152602081019050610447565b505050509050019250505060405180910390f35b600b60009054906101000a900460ff1681565b600460009054906101000a900473ffffffffffffffffffffffffffffffffffffffff1681565b3373ffffffffffffffffffffffffffffffffffffffff16600460009054906101000a900473ffffffffffffffffffffffffffffffffffffffff1673ffffffffffffffffffffffffffffffffffffffff161461050957600080fd5b600460009054906101000a900473ffffffffffffffffffffffffffffffffffffffff1673ffffffffffffffffffffffffffffffffffffffff16ff5b600260008154811061055257fe5b9060005260206000200160009054906101000a900473ffffffffffffffffffffffffffffffffffffffff1673ffffffffffffffffffffffffffffffffffffffff163373ffffffffffffffffffffffffffffffffffffffff16146105b457600080fd5b80600990805190602001906105ca929190610bd5565b5050565b60003373ffffffffffffffffffffffffffffffffffffffff16600460009054906101000a900473ffffffffffffffffffffffffffffffffffffffff1673ffffffffffffffffffffffffffffffffffffffff161461062a57600080fd5b600a54341461063857600080fd5b60028290806001815401808255809150509060018203906000526020600020016000909192909190916101000a81548173ffffffffffffffffffffffffffffffffffffffff021916908373ffffffffffffffffffffffffffffffffffffffff1602179055505060019050919050565b3373ffffffffffffffffffffffffffffffffffffffff16600460009054906101000a900473ffffffffffffffffffffffffffffffffffffffff1673ffffffffffffffffffffffffffffffffffffffff161461070157600080fd5b80600b60006101000a81548160ff02191690831515021790555050565b6000806000905060008090505b6002805490508110156107b5573373ffffffffffffffffffffffffffffffffffffffff166002828154811061075c57fe5b9060005260206000200160009054906101000a900473ffffffffffffffffffffffffffffffffffffffff1673ffffffffffffffffffffffffffffffffffffffff1614156107a857600191505b808060010191505061072b565b50806107c057600080fd5b600054421191505090565b60606001546000540142111580156107e557506000544210155b6107ee57600080fd5b8380519060200120600960405180828054600181600116156101000203166002900480156108535780601f10610831576101008083540402835291820191610853565b820191906000526020600020905b81548152906001019060200180831161083f575b50509150506040518091039020148015610896575060026008540a600261087f60066001015486610ba9565b0a600261089160066000015486610ba9565b0a0111155b61089f57600080fd5b600360003373ffffffffffffffffffffffffffffffffffffffff1673ffffffffffffffffffffffffffffffffffffffff16815260200190815260200160002060009054906101000a900460ff16156108f657600080fd5b6001600360003373ffffffffffffffffffffffffffffffffffffffff1673ffffffffffffffffffffffffffffffffffffffff16815260200190815260200160002060006101000a81548160ff021916908315150217905550600b60009054906101000a900460ff16156109b1573373ffffffffffffffffffffffffffffffffffffffff166108fc600a549081150290604051600060405180830381858888f193505050501580156109ab573d6000803e3d6000fd5b50610ab9565b600c3390806001815401808255809150509060018203906000526020600020016000909192909190916101000a81548173ffffffffffffffffffffffffffffffffffffffff021916908373ffffffffffffffffffffffffffffffffffffffff1602179055505060058054600181600116156101000203166002900480601f016020809104026020016040519081016040528092919081815260200182805460018160011615610100020316600290048015610aad5780601f10610a8257610100808354040283529160200191610aad565b820191906000526020600020905b815481529060010190602001808311610a9057829003601f168201915b50505050509050610aba565b5b9392505050565b60603373ffffffffffffffffffffffffffffffffffffffff16600460009054906101000a900473ffffffffffffffffffffffffffffffffffffffff1673ffffffffffffffffffffffffffffffffffffffff1614610b1d57600080fd5b600c805480602002602001604051908101604052809291908181526020018280548015610b9f57602002820191906000526020600020905b8160009054906101000a900473ffffffffffffffffffffffffffffffffffffffff1673ffffffffffffffffffffffffffffffffffffffff1681526020019060010190808311610b55575b5050505050905090565b600081831115610bbd578183039050610bcf565b818311610bce578282039050610bcf565b5b92915050565b828054600181600116156101000203166002900490600052602060002090601f016020900481019282601f10610c1657805160ff1916838001178555610c44565b82800160010185558215610c44579182015b82811115610c43578251825591602001919060010190610c28565b5b509050610c519190610c55565b5090565b610c7791905b80821115610c73576000816000905550600101610c5b565b5090565b9056fea165627a7a72305820cfaa731cf3dc9d4faefaae9f3479b3c3821d0a9dfc661801b2c76865c1bf62980029",
  "source": "pragma solidity ^0.5.0;\ncontract Capsule {\n    uint time;  // 캡슐을 여는 시간\n    uint limit; // 캡슐 여는 기간\n    address[] owner;    // 캡슐에 넣은 사람들 지갑 주소\n    mapping(address => bool) taked;\n    address payable public manager;    // 서버\n    string hash;    // ipfs 해시값\n    coordinate pos; // 묻은 좌표\n    uint radius = 100;  // 한계 거리 (m)\n    string key;\n    uint balance;\n    bool public mode = false;\n    address[] moneyreturn;\n    struct coordinate {\n        uint longitude;\n        uint latitude;\n    }\n    \n    /*\n    생성자\n    input : 시간 얼마나 뒤에 열거야, 묻는 사람, x좌표, y좌표, 키\n    */\n    constructor (uint _period, address _owner, uint _latitude, uint _longitude, uint value, uint _limit, string memory _hash) public payable {\n        time = now + _period;\n        owner.push(_owner);\n        taked[_owner] = false;\n        manager = tx.origin;\n        pos.latitude = _latitude;\n        pos.longitude = _longitude;\n        balance = value;\n        limit = now + _period + _limit;\n        hash = _hash;\n    }\n    \n    modifier ManagerShip() {    // 서버만 호출가능\n        require(manager == msg.sender);\n        _;\n    }\n    \n    modifier TimeLimit {\n        require(now <= time + limit && now >= time);\n        _;\n    }\n    /*\n    두 입력의 차 리턴\n    */\n    function AbsSubtract(uint a, uint b) private pure returns(uint) {\n        if (a > b) return a - b;\n        else if (a <= b) return b - a;\n    }\n    function KeyRegister(string memory _key) public {\n        require(msg.sender == owner[0]);\n        key = _key;\n    }\n    \n    /*\n    시간 지났는지 아닌지 체크\n    \n    캡슐 주인들만 확인 가능\n    output : 시간 지났으면 true, 아니면 false\n    */\n    function check() public view returns(bool) {\n        bool avail = false;\n        for (uint i = 0 ; i < owner.length ; i++) {\n            if (owner[i] == msg.sender) avail = true;\n        }\n        require(avail);\n        return (now > time);\n    }\n    \n    /*\n    참여자 추가 함수\n    input : 참여자 address\n    output : 성공시 true\n    */\n    function Participate(address _owner) public ManagerShip payable returns(bool) {\n        require(msg.value == balance);\n        owner.push(_owner);\n        return true;\n    }\n    \n    \n    function BreakCapsule1() public view ManagerShip returns(address[] memory) {\n        return moneyreturn;\n    }\n    \n    function BreakCapsule2() public ManagerShip {\n        selfdestruct(manager);\n    }\n    \n    /*\n    true : service End\n    */\n    function ModeChange(bool _mode) public ManagerShip {\n        mode = _mode;\n    }\n    \n    /*\n    열기 함수\n    input : 키, 장소, 경도, 위도\n    output : 저장되어진 해시값\n    */\n    function Open(string memory _key, uint _latitude, uint _logitude) public TimeLimit returns(string memory){\n        require(keccak256(bytes(key)) == keccak256(bytes(_key)) && (AbsSubtract(pos.longitude, _logitude) ** 2 + AbsSubtract(pos.latitude, _latitude) ** 2 <= radius ** 2));\n        require(!taked[msg.sender]);\n        taked[msg.sender] = true;\n        if (mode) {\n            msg.sender.transfer(balance);\n        } else {\n            moneyreturn.push(msg.sender);\n            return hash;\n        }\n    }\n    \n    \n    \n    function() external payable {}\n}\n",
  "sourcePath": "C:\\Users\\Yong My\\Desktop\\plz\\contracts\\Capsule.sol",
  "compiler": {
    "name": "solc",
    "version": "0.5.8+commit.23d335f2.Emscripten.clang"
  },
  "schemaVersion": "3.0.11",
  "updatedAt": "2019-08-01T20:34:07.920Z",
  "devdoc": {
    "methods": {}
  },
  "userdoc": {
    "methods": {}
  }
}