{
  "contractName": "Manage",
  "abi": [
    {
      "constant": true,
      "inputs": [],
      "name": "last_capsule",
      "outputs": [
        {
          "name": "",
          "type": "address"
        }
      ],
      "payable": false,
      "stateMutability": "view",
      "type": "function"
    },
    {
      "inputs": [],
      "payable": false,
      "stateMutability": "nonpayable",
      "type": "constructor"
    },
    {
      "payable": true,
      "stateMutability": "payable",
      "type": "fallback"
    },
    {
      "constant": false,
      "inputs": [
        {
          "name": "_period",
          "type": "uint256"
        },
        {
          "name": "_owner",
          "type": "address"
        },
        {
          "name": "_x",
          "type": "uint256"
        },
        {
          "name": "_y",
          "type": "uint256"
        },
        {
          "name": "_limit",
          "type": "uint256"
        },
        {
          "name": "_hash",
          "type": "string"
        }
      ],
      "name": "Bury",
      "outputs": [
        {
          "name": "",
          "type": "address"
        }
      ],
      "payable": true,
      "stateMutability": "payable",
      "type": "function"
    },
    {
      "constant": true,
      "inputs": [],
      "name": "CheckLastCapsule",
      "outputs": [
        {
          "name": "",
          "type": "address"
        }
      ],
      "payable": false,
      "stateMutability": "view",
      "type": "function"
    },
    {
      "constant": true,
      "inputs": [
        {
          "name": "_owner",
          "type": "address"
        }
      ],
      "name": "checking",
      "outputs": [
        {
          "name": "",
          "type": "address[]"
        },
        {
          "name": "",
          "type": "uint256"
        }
      ],
      "payable": false,
      "stateMutability": "view",
      "type": "function"
    },
    {
      "constant": false,
      "inputs": [],
      "name": "ServiceEnd",
      "outputs": [],
      "payable": false,
      "stateMutability": "nonpayable",
      "type": "function"
    }
  ],
  "bytecode": "0x60806040527f5468652070726f636573732077617320737563636573730000000000000000006003557f5468652070726f6365737320776173206661696c00000000000000000000000060045534801561005857600080fd5b50336000806101000a81548173ffffffffffffffffffffffffffffffffffffffff021916908373ffffffffffffffffffffffffffffffffffffffff160217905550611ad9806100a86000396000f3fe60806040526004361061004a5760003560e01c806334feec091461004c5780638637ab72146100f9578063bf59a7c21461023c578063ef008e1614610293578063fbd6622f146102ea575b005b34801561005857600080fd5b5061009b6004803603602081101561006f57600080fd5b81019080803573ffffffffffffffffffffffffffffffffffffffff169060200190929190505050610301565b6040518080602001838152602001828103825284818151815260200191508051906020019060200280838360005b838110156100e45780820151818401526020810190506100c9565b50505050905001935050505060405180910390f35b6101fa600480360360c081101561010f57600080fd5b8101908080359060200190929190803573ffffffffffffffffffffffffffffffffffffffff1690602001909291908035906020019092919080359060200190929190803590602001909291908035906020019064010000000081111561017457600080fd5b82018360208201111561018657600080fd5b803590602001918460018302840111640100000000831117156101a857600080fd5b91908080601f016020809104026020016040519081016040528093929190818152602001838380828437600081840152601f19601f82011690508083019250505050505050919291929050505061041b565b604051808273ffffffffffffffffffffffffffffffffffffffff1673ffffffffffffffffffffffffffffffffffffffff16815260200191505060405180910390f35b34801561024857600080fd5b50610251610a3d565b604051808273ffffffffffffffffffffffffffffffffffffffff1673ffffffffffffffffffffffffffffffffffffffff16815260200191505060405180910390f35b34801561029f57600080fd5b506102a8610a63565b604051808273ffffffffffffffffffffffffffffffffffffffff1673ffffffffffffffffffffffffffffffffffffffff16815260200191505060405180910390f35b3480156102f657600080fd5b506102ff610a8d565b005b60606000600260008473ffffffffffffffffffffffffffffffffffffffff1673ffffffffffffffffffffffffffffffffffffffff168152602001908152602001600020600001600260008573ffffffffffffffffffffffffffffffffffffffff1673ffffffffffffffffffffffffffffffffffffffff168152602001908152602001600020600201548180548060200260200160405190810160405280929190818152602001828054801561040b57602002820191906000526020600020905b8160009054906101000a900473ffffffffffffffffffffffffffffffffffffffff1673ffffffffffffffffffffffffffffffffffffffff16815260200190600101908083116103c1575b5050505050915091509150915091565b60008060009054906101000a900473ffffffffffffffffffffffffffffffffffffffff1673ffffffffffffffffffffffffffffffffffffffff163373ffffffffffffffffffffffffffffffffffffffff161461047657600080fd5b60008787878734888860405161048b90610b20565b808881526020018773ffffffffffffffffffffffffffffffffffffffff1673ffffffffffffffffffffffffffffffffffffffff16815260200186815260200185815260200184815260200183815260200180602001828103825283818151815260200191508051906020019080838360005b838110156105185780820151818401526020810190506104fd565b50505050905090810190601f1680156105455780820380516001836020036101000a031916815260200191505b5098505050505050505050604051809103906000f08015801561056c573d6000803e3d6000fd5b5090508073ffffffffffffffffffffffffffffffffffffffff166108fc349081150290604051600060405180830381858888f193505050501580156105b5573d6000803e3d6000fd5b50600260008873ffffffffffffffffffffffffffffffffffffffff1673ffffffffffffffffffffffffffffffffffffffff16815260200190815260200160002060030160009054906101000a900460ff16610860576001600260008973ffffffffffffffffffffffffffffffffffffffff1673ffffffffffffffffffffffffffffffffffffffff16815260200190815260200160002060030160006101000a81548160ff021916908315150217905550600260008873ffffffffffffffffffffffffffffffffffffffff1673ffffffffffffffffffffffffffffffffffffffff1681526020019081526020016000206002016000815480929190600101919050555060018790806001815401808255809150509060018203906000526020600020016000909192909190916101000a81548173ffffffffffffffffffffffffffffffffffffffff021916908373ffffffffffffffffffffffffffffffffffffffff160217905550506001600260008973ffffffffffffffffffffffffffffffffffffffff1673ffffffffffffffffffffffffffffffffffffffff16815260200190815260200160002060010160008373ffffffffffffffffffffffffffffffffffffffff1673ffffffffffffffffffffffffffffffffffffffff16815260200190815260200160002060006101000a81548160ff021916908315150217905550600260008873ffffffffffffffffffffffffffffffffffffffff1673ffffffffffffffffffffffffffffffffffffffff1681526020019081526020016000206000018190806001815401808255809150509060018203906000526020600020016000909192909190916101000a81548173ffffffffffffffffffffffffffffffffffffffff021916908373ffffffffffffffffffffffffffffffffffffffff160217905550506109f1565b600260008873ffffffffffffffffffffffffffffffffffffffff1673ffffffffffffffffffffffffffffffffffffffff168152602001908152602001600020600201600081548092919060010191905055506001600260008973ffffffffffffffffffffffffffffffffffffffff1673ffffffffffffffffffffffffffffffffffffffff16815260200190815260200160002060010160008373ffffffffffffffffffffffffffffffffffffffff1673ffffffffffffffffffffffffffffffffffffffff16815260200190815260200160002060006101000a81548160ff021916908315150217905550600260008873ffffffffffffffffffffffffffffffffffffffff1673ffffffffffffffffffffffffffffffffffffffff1681526020019081526020016000206000018190806001815401808255809150509060018203906000526020600020016000909192909190916101000a81548173ffffffffffffffffffffffffffffffffffffffff021916908373ffffffffffffffffffffffffffffffffffffffff160217905550505b80600560006101000a81548173ffffffffffffffffffffffffffffffffffffffff021916908373ffffffffffffffffffffffffffffffffffffffff160217905550509695505050505050565b600560009054906101000a900473ffffffffffffffffffffffffffffffffffffffff1681565b6000600560009054906101000a900473ffffffffffffffffffffffffffffffffffffffff16905090565b6000809054906101000a900473ffffffffffffffffffffffffffffffffffffffff1673ffffffffffffffffffffffffffffffffffffffff163373ffffffffffffffffffffffffffffffffffffffff1614610ae657600080fd5b6000809054906101000a900473ffffffffffffffffffffffffffffffffffffffff1673ffffffffffffffffffffffffffffffffffffffff16ff5b610f8080610b2e8339019056fe608060405260646008556000600b60006101000a81548160ff021916908315150217905550604051610f80380380610f80833981018060405260e081101561004657600080fd5b81019080805190602001909291908051906020019092919080519060200190929190805190602001909291908051906020019092919080519060200190929190805164010000000081111561009a57600080fd5b828101905060208101848111156100b057600080fd5b81518560018202830111640100000000821117156100cd57600080fd5b505092919050505086420160008190555060028690806001815401808255809150509060018203906000526020600020016000909192909190916101000a81548173ffffffffffffffffffffffffffffffffffffffff021916908373ffffffffffffffffffffffffffffffffffffffff160217905550506000600360008873ffffffffffffffffffffffffffffffffffffffff1673ffffffffffffffffffffffffffffffffffffffff16815260200190815260200160002060006101000a81548160ff02191690831515021790555032600460006101000a81548173ffffffffffffffffffffffffffffffffffffffff021916908373ffffffffffffffffffffffffffffffffffffffff160217905550846006600101819055508360066000018190555082600a8190555081874201016001819055508060059080519060200190610219929190610226565b50505050505050506102cb565b828054600181600116156101000203166002900490600052602060002090601f016020900481019282601f1061026757805160ff1916838001178555610295565b82800160010185558215610295579182015b82811115610294578251825591602001919060010190610279565b5b5090506102a291906102a6565b5090565b6102c891905b808211156102c45760008160009055506001016102ac565b5090565b90565b610ca6806102da6000396000f3fe6080604052600436106100865760003560e01c80634a85b5f4116100595780634a85b5f4146101ed5780634c5bbf0914610249578063919840ad14610286578063f005b2c4146102b5578063ff1e00131461040a57610086565b8063295a521214610088578063481c6a75146100b7578063484cb0041461010e5780634978f92714610125575b005b34801561009457600080fd5b5061009d610476565b604051808215151515815260200191505060405180910390f35b3480156100c357600080fd5b506100cc610489565b604051808273ffffffffffffffffffffffffffffffffffffffff1673ffffffffffffffffffffffffffffffffffffffff16815260200191505060405180910390f35b34801561011a57600080fd5b506101236104af565b005b34801561013157600080fd5b506101eb6004803603602081101561014857600080fd5b810190808035906020019064010000000081111561016557600080fd5b82018360208201111561017757600080fd5b8035906020019184600183028401116401000000008311171561019957600080fd5b91908080601f016020809104026020016040519081016040528093929190818152602001838380828437600081840152601f19601f820116905080830192505050505050509192919290505050610544565b005b61022f6004803603602081101561020357600080fd5b81019080803573ffffffffffffffffffffffffffffffffffffffff1690602001909291905050506105ce565b604051808215151515815260200191505060405180910390f35b34801561025557600080fd5b506102846004803603602081101561026c57600080fd5b810190808035151590602001909291905050506106a7565b005b34801561029257600080fd5b5061029b61071e565b604051808215151515815260200191505060405180910390f35b3480156102c157600080fd5b5061038f600480360360608110156102d857600080fd5b81019080803590602001906401000000008111156102f557600080fd5b82018360208201111561030757600080fd5b8035906020019184600183028401116401000000008311171561032957600080fd5b91908080601f016020809104026020016040519081016040528093929190818152602001838380828437600081840152601f19601f82011690508083019250505050505050919291929080359060200190929190803590602001909291905050506107cb565b6040518080602001828103825283818151815260200191508051906020019080838360005b838110156103cf5780820151818401526020810190506103b4565b50505050905090810190601f1680156103fc5780820380516001836020036101000a031916815260200191505b509250505060405180910390f35b34801561041657600080fd5b5061041f610ac1565b6040518080602001828103825283818151815260200191508051906020019060200280838360005b83811015610462578082015181840152602081019050610447565b505050509050019250505060405180910390f35b600b60009054906101000a900460ff1681565b600460009054906101000a900473ffffffffffffffffffffffffffffffffffffffff1681565b3373ffffffffffffffffffffffffffffffffffffffff16600460009054906101000a900473ffffffffffffffffffffffffffffffffffffffff1673ffffffffffffffffffffffffffffffffffffffff161461050957600080fd5b600460009054906101000a900473ffffffffffffffffffffffffffffffffffffffff1673ffffffffffffffffffffffffffffffffffffffff16ff5b600260008154811061055257fe5b9060005260206000200160009054906101000a900473ffffffffffffffffffffffffffffffffffffffff1673ffffffffffffffffffffffffffffffffffffffff163373ffffffffffffffffffffffffffffffffffffffff16146105b457600080fd5b80600990805190602001906105ca929190610bd5565b5050565b60003373ffffffffffffffffffffffffffffffffffffffff16600460009054906101000a900473ffffffffffffffffffffffffffffffffffffffff1673ffffffffffffffffffffffffffffffffffffffff161461062a57600080fd5b600a54341461063857600080fd5b60028290806001815401808255809150509060018203906000526020600020016000909192909190916101000a81548173ffffffffffffffffffffffffffffffffffffffff021916908373ffffffffffffffffffffffffffffffffffffffff1602179055505060019050919050565b3373ffffffffffffffffffffffffffffffffffffffff16600460009054906101000a900473ffffffffffffffffffffffffffffffffffffffff1673ffffffffffffffffffffffffffffffffffffffff161461070157600080fd5b80600b60006101000a81548160ff02191690831515021790555050565b6000806000905060008090505b6002805490508110156107b5573373ffffffffffffffffffffffffffffffffffffffff166002828154811061075c57fe5b9060005260206000200160009054906101000a900473ffffffffffffffffffffffffffffffffffffffff1673ffffffffffffffffffffffffffffffffffffffff1614156107a857600191505b808060010191505061072b565b50806107c057600080fd5b600054421191505090565b60606001546000540142111580156107e557506000544210155b6107ee57600080fd5b8380519060200120600960405180828054600181600116156101000203166002900480156108535780601f10610831576101008083540402835291820191610853565b820191906000526020600020905b81548152906001019060200180831161083f575b50509150506040518091039020148015610896575060026008540a600261087f60066001015486610ba9565b0a600261089160066000015486610ba9565b0a0111155b61089f57600080fd5b600360003373ffffffffffffffffffffffffffffffffffffffff1673ffffffffffffffffffffffffffffffffffffffff16815260200190815260200160002060009054906101000a900460ff16156108f657600080fd5b6001600360003373ffffffffffffffffffffffffffffffffffffffff1673ffffffffffffffffffffffffffffffffffffffff16815260200190815260200160002060006101000a81548160ff021916908315150217905550600b60009054906101000a900460ff16156109b1573373ffffffffffffffffffffffffffffffffffffffff166108fc600a549081150290604051600060405180830381858888f193505050501580156109ab573d6000803e3d6000fd5b50610ab9565b600c3390806001815401808255809150509060018203906000526020600020016000909192909190916101000a81548173ffffffffffffffffffffffffffffffffffffffff021916908373ffffffffffffffffffffffffffffffffffffffff1602179055505060058054600181600116156101000203166002900480601f016020809104026020016040519081016040528092919081815260200182805460018160011615610100020316600290048015610aad5780601f10610a8257610100808354040283529160200191610aad565b820191906000526020600020905b815481529060010190602001808311610a9057829003601f168201915b50505050509050610aba565b5b9392505050565b60603373ffffffffffffffffffffffffffffffffffffffff16600460009054906101000a900473ffffffffffffffffffffffffffffffffffffffff1673ffffffffffffffffffffffffffffffffffffffff1614610b1d57600080fd5b600c805480602002602001604051908101604052809291908181526020018280548015610b9f57602002820191906000526020600020905b8160009054906101000a900473ffffffffffffffffffffffffffffffffffffffff1673ffffffffffffffffffffffffffffffffffffffff1681526020019060010190808311610b55575b5050505050905090565b600081831115610bbd578183039050610bcf565b818311610bce578282039050610bcf565b5b92915050565b828054600181600116156101000203166002900490600052602060002090601f016020900481019282601f10610c1657805160ff1916838001178555610c44565b82800160010185558215610c44579182015b82811115610c43578251825591602001919060010190610c28565b5b509050610c519190610c55565b5090565b610c7791905b80821115610c73576000816000905550600101610c5b565b5090565b9056fea165627a7a72305820cfaa731cf3dc9d4faefaae9f3479b3c3821d0a9dfc661801b2c76865c1bf62980029a165627a7a723058207525cb97ad4c4d823d76e0e2297b26fa14fd2359091f2687211632fce2c1fb1e0029",
  "source": "pragma solidity ^0.5.0;\nimport \"./Capsule.sol\";\n\ncontract Manage {\n   address payable private owner;  // 서버\n   address[] list; // 고객 명단(지갑 주소)\n   mapping(address => Capsul) cap; // 고객 명단을 통해 저장하는 캡슐 개수와 내용, 고객의 존재 여부\n   bytes32 ok = \"The process was success\"; // 성공시 출력\n   bytes32 fail = \"The process was fail\";  // 실패시 출력\n\n\n   struct Capsul {\n       address[] capList;\n       mapping(address => bool) capsule;\n       uint num;\n       bool exist;\n   }\n\n   constructor () public {\n       owner = msg.sender;\n   }\n\n   modifier OwnerShip() {  // 서버가 실행한 경우 통과\n       require(msg.sender == owner);\n       _;\n   }\n\n   /*\n   캡슐을 묻는 함수(hash 값을 바로 받는 걸로 수정하기)\n\n   input : 기간, 캡슐 묻는 사람, 실행 하는 위치 x, y\n   output : 만든 캡슐 컨트랙트 주소\n   */\n   function Bury(uint _period, address _owner, uint _x, uint _y, uint _limit, string memory _hash) public OwnerShip payable returns(address) {\n       Capsule capsule = new Capsule(_period, _owner, _x, _y, msg.value, _limit, _hash);\n       address(capsule).transfer(msg.value);\n       if (!cap[_owner].exist) {\n           cap[_owner].exist = true;\n           cap[_owner].num++;\n           list.push(_owner);\n           cap[_owner].capsule[address(capsule)] = true;\n           cap[_owner].capList.push(address(capsule));\n       }else {\n           cap[_owner].num++;\n           cap[_owner].capsule[address(capsule)] = true;\n           cap[_owner].capList.push(address(capsule));\n       }\n\n       last_capsule = address(capsule);\n   }\n   address public last_capsule;\n\n   function CheckLastCapsule() public view returns(address) {\n       return last_capsule;\n   }\n\n   function checking(address _owner) public view returns (address[] memory, uint) {\n       return (cap[_owner].capList, cap[_owner].num);\n   }\n\n   /*\n   서비스 종료시 실행하는 함수\n   서버만 실행 가능\n   cap[list[i]].capList[j] == all address of capsule\n   */\n   function ServiceEnd() public OwnerShip {\n       selfdestruct(owner);\n   }\n\n   function() external payable {\n   }\n}\n",
  "sourcePath": "C:/Users/Yong My/Desktop/plz/contracts/Manage.sol",
  "compiler": {
    "name": "solc",
    "version": "0.5.8+commit.23d335f2.Emscripten.clang"
  },
  "schemaVersion": "3.0.11",
  "updatedAt": "2019-08-01T22:00:51.822Z",
  "devdoc": {
    "methods": {}
  },
  "userdoc": {
    "methods": {}
  }
}